{
	"contracts/FlightInsurance.sol": {
		"FlightInsurance": {
			"abi": [
				{
					"inputs": [
						{
							"internalType": "address",
							"name": "companyWallet",
							"type": "address"
						}
					],
					"stateMutability": "nonpayable",
					"type": "constructor"
				},
				{
					"anonymous": false,
					"inputs": [
						{
							"indexed": false,
							"internalType": "address",
							"name": "receipient",
							"type": "address"
						},
						{
							"indexed": false,
							"internalType": "uint256",
							"name": "amount",
							"type": "uint256"
						},
						{
							"indexed": false,
							"internalType": "string",
							"name": "returnData",
							"type": "string"
						}
					],
					"name": "PayoutFailed",
					"type": "event"
				},
				{
					"anonymous": false,
					"inputs": [
						{
							"indexed": false,
							"internalType": "address",
							"name": "receipient",
							"type": "address"
						},
						{
							"indexed": false,
							"internalType": "uint256",
							"name": "amount",
							"type": "uint256"
						}
					],
					"name": "PayoutSent",
					"type": "event"
				},
				{
					"inputs": [
						{
							"internalType": "uint8",
							"name": "_tier",
							"type": "uint8"
						},
						{
							"internalType": "address",
							"name": "userWallet",
							"type": "address"
						}
					],
					"name": "initiatePayout",
					"outputs": [],
					"stateMutability": "nonpayable",
					"type": "function"
				},
				{
					"inputs": [],
					"name": "lastReceivedMessage",
					"outputs": [
						{
							"internalType": "string",
							"name": "",
							"type": "string"
						}
					],
					"stateMutability": "view",
					"type": "function"
				}
			],
			"devdoc": {
				"events": {
					"PayoutFailed(address,uint256,string)": {
						"details": "Event triggered when transaction failed"
					},
					"PayoutSent(address,uint256)": {
						"details": "Event triggered when transaction is successful"
					}
				},
				"kind": "dev",
				"methods": {},
				"version": 1
			},
			"evm": {
				"assembly": "    /* \"contracts/FlightInsurance.sol\":70:1814  contract FlightInsurance {... */\n  mstore(0x40, 0x80)\n    /* \"contracts/FlightInsurance.sol\":186:303  constructor(address companyWallet) {... */\n  callvalue\n  dup1\n  iszero\n  tag_1\n  jumpi\n  revert(0x00, 0x00)\ntag_1:\n  pop\n  mload(0x40)\n  sub(codesize, bytecodeSize)\n  dup1\n  bytecodeSize\n  dup4\n  codecopy\n  dup2\n  dup2\n  add\n  0x40\n  mstore\n  dup2\n  add\n  swap1\n  tag_2\n  swap2\n  swap1\n  tag_3\n  jump\t// in\ntag_2:\n    /* \"contracts/FlightInsurance.sol\":265:266  0 */\n  0x00\n    /* \"contracts/FlightInsurance.sol\":240:267  companyWallet != address(0) */\n  0xffffffffffffffffffffffffffffffffffffffff\n  and\n    /* \"contracts/FlightInsurance.sol\":240:253  companyWallet */\n  dup2\n    /* \"contracts/FlightInsurance.sol\":240:267  companyWallet != address(0) */\n  0xffffffffffffffffffffffffffffffffffffffff\n  and\n  sub\n    /* \"contracts/FlightInsurance.sol\":232:295  require(companyWallet != address(0), \"Invalid sending wallet!\") */\n  tag_6\n  jumpi\n  mload(0x40)\n  0x08c379a000000000000000000000000000000000000000000000000000000000\n  dup2\n  mstore\n  0x04\n  add\n  tag_7\n  swap1\n  tag_8\n  jump\t// in\ntag_7:\n  mload(0x40)\n  dup1\n  swap2\n  sub\n  swap1\n  revert\ntag_6:\n    /* \"contracts/FlightInsurance.sol\":186:303  constructor(address companyWallet) {... */\n  pop\n    /* \"contracts/FlightInsurance.sol\":70:1814  contract FlightInsurance {... */\n  jump(tag_9)\n    /* \"#utility.yul\":88:205   */\ntag_11:\n    /* \"#utility.yul\":197:198   */\n  0x00\n    /* \"#utility.yul\":194:195   */\n  0x00\n    /* \"#utility.yul\":187:199   */\n  revert\n    /* \"#utility.yul\":334:460   */\ntag_13:\n    /* \"#utility.yul\":371:378   */\n  0x00\n    /* \"#utility.yul\":411:453   */\n  0xffffffffffffffffffffffffffffffffffffffff\n    /* \"#utility.yul\":404:409   */\n  dup3\n    /* \"#utility.yul\":400:454   */\n  and\n    /* \"#utility.yul\":389:454   */\n  swap1\n  pop\n    /* \"#utility.yul\":334:460   */\n  swap2\n  swap1\n  pop\n  jump\t// out\n    /* \"#utility.yul\":466:562   */\ntag_14:\n    /* \"#utility.yul\":503:510   */\n  0x00\n    /* \"#utility.yul\":532:556   */\n  tag_26\n    /* \"#utility.yul\":550:555   */\n  dup3\n    /* \"#utility.yul\":532:556   */\n  tag_13\n  jump\t// in\ntag_26:\n    /* \"#utility.yul\":521:556   */\n  swap1\n  pop\n    /* \"#utility.yul\":466:562   */\n  swap2\n  swap1\n  pop\n  jump\t// out\n    /* \"#utility.yul\":568:690   */\ntag_15:\n    /* \"#utility.yul\":641:665   */\n  tag_28\n    /* \"#utility.yul\":659:664   */\n  dup2\n    /* \"#utility.yul\":641:665   */\n  tag_14\n  jump\t// in\ntag_28:\n    /* \"#utility.yul\":634:639   */\n  dup2\n    /* \"#utility.yul\":631:666   */\n  eq\n    /* \"#utility.yul\":621:684   */\n  tag_29\n  jumpi\n    /* \"#utility.yul\":680:681   */\n  0x00\n    /* \"#utility.yul\":677:678   */\n  0x00\n    /* \"#utility.yul\":670:682   */\n  revert\n    /* \"#utility.yul\":621:684   */\ntag_29:\n    /* \"#utility.yul\":568:690   */\n  pop\n  jump\t// out\n    /* \"#utility.yul\":696:839   */\ntag_16:\n    /* \"#utility.yul\":753:758   */\n  0x00\n    /* \"#utility.yul\":784:790   */\n  dup2\n    /* \"#utility.yul\":778:791   */\n  mload\n    /* \"#utility.yul\":769:791   */\n  swap1\n  pop\n    /* \"#utility.yul\":800:833   */\n  tag_31\n    /* \"#utility.yul\":827:832   */\n  dup2\n    /* \"#utility.yul\":800:833   */\n  tag_15\n  jump\t// in\ntag_31:\n    /* \"#utility.yul\":696:839   */\n  swap3\n  swap2\n  pop\n  pop\n  jump\t// out\n    /* \"#utility.yul\":845:1196   */\ntag_3:\n    /* \"#utility.yul\":915:921   */\n  0x00\n    /* \"#utility.yul\":964:966   */\n  0x20\n    /* \"#utility.yul\":952:961   */\n  dup3\n    /* \"#utility.yul\":943:950   */\n  dup5\n    /* \"#utility.yul\":939:962   */\n  sub\n    /* \"#utility.yul\":935:967   */\n  slt\n    /* \"#utility.yul\":932:1051   */\n  iszero\n  tag_33\n  jumpi\n    /* \"#utility.yul\":970:1049   */\n  tag_34\n  tag_11\n  jump\t// in\ntag_34:\n    /* \"#utility.yul\":932:1051   */\ntag_33:\n    /* \"#utility.yul\":1090:1091   */\n  0x00\n    /* \"#utility.yul\":1115:1179   */\n  tag_35\n    /* \"#utility.yul\":1171:1178   */\n  dup5\n    /* \"#utility.yul\":1162:1168   */\n  dup3\n    /* \"#utility.yul\":1151:1160   */\n  dup6\n    /* \"#utility.yul\":1147:1169   */\n  add\n    /* \"#utility.yul\":1115:1179   */\n  tag_16\n  jump\t// in\ntag_35:\n    /* \"#utility.yul\":1105:1179   */\n  swap2\n  pop\n    /* \"#utility.yul\":1061:1189   */\n  pop\n    /* \"#utility.yul\":845:1196   */\n  swap3\n  swap2\n  pop\n  pop\n  jump\t// out\n    /* \"#utility.yul\":1202:1371   */\ntag_17:\n    /* \"#utility.yul\":1286:1297   */\n  0x00\n    /* \"#utility.yul\":1320:1326   */\n  dup3\n    /* \"#utility.yul\":1315:1318   */\n  dup3\n    /* \"#utility.yul\":1308:1327   */\n  mstore\n    /* \"#utility.yul\":1360:1364   */\n  0x20\n    /* \"#utility.yul\":1355:1358   */\n  dup3\n    /* \"#utility.yul\":1351:1365   */\n  add\n    /* \"#utility.yul\":1336:1365   */\n  swap1\n  pop\n    /* \"#utility.yul\":1202:1371   */\n  swap3\n  swap2\n  pop\n  pop\n  jump\t// out\n    /* \"#utility.yul\":1377:1550   */\ntag_18:\n    /* \"#utility.yul\":1517:1542   */\n  0x496e76616c69642073656e64696e672077616c6c657421000000000000000000\n    /* \"#utility.yul\":1513:1514   */\n  0x00\n    /* \"#utility.yul\":1505:1511   */\n  dup3\n    /* \"#utility.yul\":1501:1515   */\n  add\n    /* \"#utility.yul\":1494:1543   */\n  mstore\n    /* \"#utility.yul\":1377:1550   */\n  pop\n  jump\t// out\n    /* \"#utility.yul\":1556:1922   */\ntag_19:\n    /* \"#utility.yul\":1698:1701   */\n  0x00\n    /* \"#utility.yul\":1719:1786   */\n  tag_39\n    /* \"#utility.yul\":1783:1785   */\n  0x17\n    /* \"#utility.yul\":1778:1781   */\n  dup4\n    /* \"#utility.yul\":1719:1786   */\n  tag_17\n  jump\t// in\ntag_39:\n    /* \"#utility.yul\":1712:1786   */\n  swap2\n  pop\n    /* \"#utility.yul\":1795:1888   */\n  tag_40\n    /* \"#utility.yul\":1884:1887   */\n  dup3\n    /* \"#utility.yul\":1795:1888   */\n  tag_18\n  jump\t// in\ntag_40:\n    /* \"#utility.yul\":1913:1915   */\n  0x20\n    /* \"#utility.yul\":1908:1911   */\n  dup3\n    /* \"#utility.yul\":1904:1916   */\n  add\n    /* \"#utility.yul\":1897:1916   */\n  swap1\n  pop\n    /* \"#utility.yul\":1556:1922   */\n  swap2\n  swap1\n  pop\n  jump\t// out\n    /* \"#utility.yul\":1928:2347   */\ntag_8:\n    /* \"#utility.yul\":2094:2098   */\n  0x00\n    /* \"#utility.yul\":2132:2134   */\n  0x20\n    /* \"#utility.yul\":2121:2130   */\n  dup3\n    /* \"#utility.yul\":2117:2135   */\n  add\n    /* \"#utility.yul\":2109:2135   */\n  swap1\n  pop\n    /* \"#utility.yul\":2181:2190   */\n  dup2\n    /* \"#utility.yul\":2175:2179   */\n  dup2\n    /* \"#utility.yul\":2171:2191   */\n  sub\n    /* \"#utility.yul\":2167:2168   */\n  0x00\n    /* \"#utility.yul\":2156:2165   */\n  dup4\n    /* \"#utility.yul\":2152:2169   */\n  add\n    /* \"#utility.yul\":2145:2192   */\n  mstore\n    /* \"#utility.yul\":2209:2340   */\n  tag_42\n    /* \"#utility.yul\":2335:2339   */\n  dup2\n    /* \"#utility.yul\":2209:2340   */\n  tag_19\n  jump\t// in\ntag_42:\n    /* \"#utility.yul\":2201:2340   */\n  swap1\n  pop\n    /* \"#utility.yul\":1928:2347   */\n  swap2\n  swap1\n  pop\n  jump\t// out\n    /* \"contracts/FlightInsurance.sol\":70:1814  contract FlightInsurance {... */\ntag_9:\n  dataSize(sub_0)\n  dup1\n  dataOffset(sub_0)\n  0x00\n  codecopy\n  0x00\n  return\nstop\n\nsub_0: assembly {\n        /* \"contracts/FlightInsurance.sol\":70:1814  contract FlightInsurance {... */\n      mstore(0x40, 0x80)\n      callvalue\n      dup1\n      iszero\n      tag_1\n      jumpi\n      revert(0x00, 0x00)\n    tag_1:\n      pop\n      jumpi(tag_2, lt(calldatasize, 0x04))\n      shr(0xe0, calldataload(0x00))\n      dup1\n      0x7851cc06\n      eq\n      tag_3\n      jumpi\n      dup1\n      0x92dd427b\n      eq\n      tag_4\n      jumpi\n    tag_2:\n      revert(0x00, 0x00)\n        /* \"contracts/FlightInsurance.sol\":1207:1809  function initiatePayout( ... */\n    tag_3:\n      tag_5\n      0x04\n      dup1\n      calldatasize\n      sub\n      dup2\n      add\n      swap1\n      tag_6\n      swap2\n      swap1\n      tag_7\n      jump\t// in\n    tag_6:\n      tag_8\n      jump\t// in\n    tag_5:\n      stop\n        /* \"contracts/FlightInsurance.sol\":144:177  string public lastReceivedMessage */\n    tag_4:\n      tag_9\n      tag_10\n      jump\t// in\n    tag_9:\n      mload(0x40)\n      tag_11\n      swap2\n      swap1\n      tag_12\n      jump\t// in\n    tag_11:\n      mload(0x40)\n      dup1\n      swap2\n      sub\n      swap1\n      return\n        /* \"contracts/FlightInsurance.sol\":1207:1809  function initiatePayout( ... */\n    tag_8:\n        /* \"contracts/FlightInsurance.sol\":1325:1326  0 */\n      0x00\n        /* \"contracts/FlightInsurance.sol\":1318:1323  _tier */\n      dup3\n        /* \"contracts/FlightInsurance.sol\":1318:1326  _tier>=0 */\n      0xff\n      and\n      lt\n      iszero\n        /* \"contracts/FlightInsurance.sol\":1318:1339  _tier>=0 && _tier <=1 */\n      dup1\n      iszero\n      tag_14\n      jumpi\n      pop\n        /* \"contracts/FlightInsurance.sol\":1338:1339  1 */\n      0x01\n        /* \"contracts/FlightInsurance.sol\":1330:1335  _tier */\n      dup3\n        /* \"contracts/FlightInsurance.sol\":1330:1339  _tier <=1 */\n      0xff\n      and\n      gt\n      iszero\n        /* \"contracts/FlightInsurance.sol\":1318:1339  _tier>=0 && _tier <=1 */\n    tag_14:\n        /* \"contracts/FlightInsurance.sol\":1310:1362  require(_tier>=0 && _tier <=1, \"Invalid user tier!\") */\n      tag_15\n      jumpi\n      mload(0x40)\n      0x08c379a000000000000000000000000000000000000000000000000000000000\n      dup2\n      mstore\n      0x04\n      add\n      tag_16\n      swap1\n      tag_17\n      jump\t// in\n    tag_16:\n      mload(0x40)\n      dup1\n      swap2\n      sub\n      swap1\n      revert\n    tag_15:\n        /* \"contracts/FlightInsurance.sol\":1375:1402  InsuranceTier insuranceTier */\n      0x00\n        /* \"contracts/FlightInsurance.sol\":1419:1424  _tier */\n      dup3\n        /* \"contracts/FlightInsurance.sol\":1405:1425  InsuranceTier(_tier) */\n      0xff\n      and\n      0x01\n      dup2\n      gt\n      iszero\n      tag_18\n      jumpi\n      tag_19\n      tag_20\n      jump\t// in\n    tag_19:\n    tag_18:\n        /* \"contracts/FlightInsurance.sol\":1375:1425  InsuranceTier insuranceTier = InsuranceTier(_tier) */\n      swap1\n      pop\n        /* \"contracts/FlightInsurance.sol\":1436:1449  uint16 payout */\n      0x00\n        /* \"contracts/FlightInsurance.sol\":1452:1482  calculatePayout(insuranceTier) */\n      tag_21\n        /* \"contracts/FlightInsurance.sol\":1468:1481  insuranceTier */\n      dup3\n        /* \"contracts/FlightInsurance.sol\":1452:1467  calculatePayout */\n      tag_22\n        /* \"contracts/FlightInsurance.sol\":1452:1482  calculatePayout(insuranceTier) */\n      jump\t// in\n    tag_21:\n        /* \"contracts/FlightInsurance.sol\":1436:1482  uint16 payout = calculatePayout(insuranceTier) */\n      swap1\n      pop\n        /* \"contracts/FlightInsurance.sol\":1494:1503  bool sent */\n      0x00\n        /* \"contracts/FlightInsurance.sol\":1505:1522  bytes memory data */\n      0x00\n        /* \"contracts/FlightInsurance.sol\":1534:1544  userWallet */\n      dup5\n        /* \"contracts/FlightInsurance.sol\":1526:1550  payable(userWallet).call */\n      0xffffffffffffffffffffffffffffffffffffffff\n      and\n        /* \"contracts/FlightInsurance.sol\":1558:1564  payout */\n      dup4\n        /* \"contracts/FlightInsurance.sol\":1526:1569  payable(userWallet).call{value: payout}(\"\") */\n      0xffff\n      and\n      mload(0x40)\n      tag_23\n      swap1\n      tag_24\n      jump\t// in\n    tag_23:\n      0x00\n      mload(0x40)\n      dup1\n      dup4\n      sub\n      dup2\n      dup6\n      dup8\n      gas\n      call\n      swap3\n      pop\n      pop\n      pop\n      returndatasize\n      dup1\n      0x00\n      dup2\n      eq\n      tag_27\n      jumpi\n      mload(0x40)\n      swap2\n      pop\n      and(add(returndatasize, 0x3f), not(0x1f))\n      dup3\n      add\n      0x40\n      mstore\n      returndatasize\n      dup3\n      mstore\n      returndatasize\n      0x00\n      0x20\n      dup5\n      add\n      returndatacopy\n      jump(tag_26)\n    tag_27:\n      0x60\n      swap2\n      pop\n    tag_26:\n      pop\n        /* \"contracts/FlightInsurance.sol\":1493:1569  (bool sent, bytes memory data) = payable(userWallet).call{value: payout}(\"\") */\n      swap2\n      pop\n      swap2\n      pop\n        /* \"contracts/FlightInsurance.sol\":1584:1588  sent */\n      dup2\n        /* \"contracts/FlightInsurance.sol\":1580:1802  if (sent) {... */\n      iszero\n      tag_28\n      jumpi\n        /* \"contracts/FlightInsurance.sol\":1610:1640  PayoutSent(userWallet, payout) */\n      0x6c114f03096d92b098f0f087d8fd4a756d362d86a9649a07142404e7fd1d77b5\n        /* \"contracts/FlightInsurance.sol\":1621:1631  userWallet */\n      dup6\n        /* \"contracts/FlightInsurance.sol\":1633:1639  payout */\n      dup5\n        /* \"contracts/FlightInsurance.sol\":1610:1640  PayoutSent(userWallet, payout) */\n      mload(0x40)\n      tag_29\n      swap3\n      swap2\n      swap1\n      tag_30\n      jump\t// in\n    tag_29:\n      mload(0x40)\n      dup1\n      swap2\n      sub\n      swap1\n      log1\n        /* \"contracts/FlightInsurance.sol\":1580:1802  if (sent) {... */\n      jump(tag_31)\n    tag_28:\n        /* \"contracts/FlightInsurance.sol\":1673:1697  string memory dataString */\n      0x00\n        /* \"contracts/FlightInsurance.sol\":1711:1715  data */\n      dup2\n        /* \"contracts/FlightInsurance.sol\":1700:1726  abi.decode(data, (string)) */\n      dup1\n      0x20\n      add\n      swap1\n      mload\n      dup2\n      add\n      swap1\n      tag_32\n      swap2\n      swap1\n      tag_33\n      jump\t// in\n    tag_32:\n        /* \"contracts/FlightInsurance.sol\":1673:1726  string memory dataString = abi.decode(data, (string)) */\n      swap1\n      pop\n        /* \"contracts/FlightInsurance.sol\":1746:1790  PayoutFailed(userWallet, payout, dataString) */\n      0xb50bad9d607d2eea3965c8f8d06b1656ee8d5977f65b49e355adebc65a6b86b4\n        /* \"contracts/FlightInsurance.sol\":1759:1769  userWallet */\n      dup7\n        /* \"contracts/FlightInsurance.sol\":1771:1777  payout */\n      dup6\n        /* \"contracts/FlightInsurance.sol\":1779:1789  dataString */\n      dup4\n        /* \"contracts/FlightInsurance.sol\":1746:1790  PayoutFailed(userWallet, payout, dataString) */\n      mload(0x40)\n      tag_34\n      swap4\n      swap3\n      swap2\n      swap1\n      tag_35\n      jump\t// in\n    tag_34:\n      mload(0x40)\n      dup1\n      swap2\n      sub\n      swap1\n      log1\n        /* \"contracts/FlightInsurance.sol\":1658:1802  {... */\n      pop\n        /* \"contracts/FlightInsurance.sol\":1580:1802  if (sent) {... */\n    tag_31:\n        /* \"contracts/FlightInsurance.sol\":1299:1809  {... */\n      pop\n      pop\n      pop\n      pop\n        /* \"contracts/FlightInsurance.sol\":1207:1809  function initiatePayout( ... */\n      pop\n      pop\n      jump\t// out\n        /* \"contracts/FlightInsurance.sol\":144:177  string public lastReceivedMessage */\n    tag_10:\n      0x00\n      dup1\n      sload\n      tag_36\n      swap1\n      tag_37\n      jump\t// in\n    tag_36:\n      dup1\n      0x1f\n      add\n      0x20\n      dup1\n      swap2\n      div\n      mul\n      0x20\n      add\n      mload(0x40)\n      swap1\n      dup2\n      add\n      0x40\n      mstore\n      dup1\n      swap3\n      swap2\n      swap1\n      dup2\n      dup2\n      mstore\n      0x20\n      add\n      dup3\n      dup1\n      sload\n      tag_38\n      swap1\n      tag_37\n      jump\t// in\n    tag_38:\n      dup1\n      iszero\n      tag_39\n      jumpi\n      dup1\n      0x1f\n      lt\n      tag_40\n      jumpi\n      0x0100\n      dup1\n      dup4\n      sload\n      div\n      mul\n      dup4\n      mstore\n      swap2\n      0x20\n      add\n      swap2\n      jump(tag_39)\n    tag_40:\n      dup3\n      add\n      swap2\n      swap1\n      0x00\n      mstore\n      keccak256(0x00, 0x20)\n      swap1\n    tag_41:\n      dup2\n      sload\n      dup2\n      mstore\n      swap1\n      0x01\n      add\n      swap1\n      0x20\n      add\n      dup1\n      dup4\n      gt\n      tag_41\n      jumpi\n      dup3\n      swap1\n      sub\n      0x1f\n      and\n      dup3\n      add\n      swap2\n    tag_39:\n      pop\n      pop\n      pop\n      pop\n      pop\n      dup2\n      jump\t// out\n        /* \"contracts/FlightInsurance.sol\":454:903  function calculatePayout(InsuranceTier _userTier) pure private returns (uint16) {... */\n    tag_22:\n        /* \"contracts/FlightInsurance.sol\":526:532  uint16 */\n      0x00\n        /* \"contracts/FlightInsurance.sol\":545:558  uint16 payout */\n      0x00\n        /* \"contracts/FlightInsurance.sol\":586:605  InsuranceTier.Basic */\n      0x00\n        /* \"contracts/FlightInsurance.sol\":573:605  _userTier == InsuranceTier.Basic */\n      0x01\n      dup2\n      gt\n      iszero\n      tag_43\n      jumpi\n      tag_44\n      tag_20\n      jump\t// in\n    tag_44:\n    tag_43:\n        /* \"contracts/FlightInsurance.sol\":573:582  _userTier */\n      dup4\n        /* \"contracts/FlightInsurance.sol\":573:605  _userTier == InsuranceTier.Basic */\n      0x01\n      dup2\n      gt\n      iszero\n      tag_45\n      jumpi\n      tag_46\n      tag_20\n      jump\t// in\n    tag_46:\n    tag_45:\n      sub\n        /* \"contracts/FlightInsurance.sol\":569:872  if (_userTier == InsuranceTier.Basic) {... */\n      tag_47\n      jumpi\n        /* \"contracts/FlightInsurance.sol\":668:669  1 */\n      0x01\n        /* \"contracts/FlightInsurance.sol\":659:669  payout = 1 */\n      swap1\n      pop\n        /* \"contracts/FlightInsurance.sol\":569:872  if (_userTier == InsuranceTier.Basic) {... */\n      jump(tag_48)\n    tag_47:\n        /* \"contracts/FlightInsurance.sol\":704:726  InsuranceTier.Enhanced */\n      0x01\n        /* \"contracts/FlightInsurance.sol\":691:726  _userTier == InsuranceTier.Enhanced */\n      dup1\n      dup2\n      gt\n      iszero\n      tag_49\n      jumpi\n      tag_50\n      tag_20\n      jump\t// in\n    tag_50:\n    tag_49:\n        /* \"contracts/FlightInsurance.sol\":691:700  _userTier */\n      dup4\n        /* \"contracts/FlightInsurance.sol\":691:726  _userTier == InsuranceTier.Enhanced */\n      0x01\n      dup2\n      gt\n      iszero\n      tag_51\n      jumpi\n      tag_52\n      tag_20\n      jump\t// in\n    tag_52:\n    tag_51:\n      sub\n        /* \"contracts/FlightInsurance.sol\":687:872  if (_userTier == InsuranceTier.Enhanced) {... */\n      tag_53\n      jumpi\n        /* \"contracts/FlightInsurance.sol\":793:794  3 */\n      0x03\n        /* \"contracts/FlightInsurance.sol\":784:794  payout = 3 */\n      swap1\n      pop\n        /* \"contracts/FlightInsurance.sol\":687:872  if (_userTier == InsuranceTier.Enhanced) {... */\n      jump(tag_54)\n    tag_53:\n        /* \"contracts/FlightInsurance.sol\":827:860  revert(\"Invalid insurance tier!\") */\n      mload(0x40)\n      0x08c379a000000000000000000000000000000000000000000000000000000000\n      dup2\n      mstore\n      0x04\n      add\n      tag_55\n      swap1\n      tag_56\n      jump\t// in\n    tag_55:\n      mload(0x40)\n      dup1\n      swap2\n      sub\n      swap1\n      revert\n        /* \"contracts/FlightInsurance.sol\":687:872  if (_userTier == InsuranceTier.Enhanced) {... */\n    tag_54:\n        /* \"contracts/FlightInsurance.sol\":569:872  if (_userTier == InsuranceTier.Basic) {... */\n    tag_48:\n        /* \"contracts/FlightInsurance.sol\":889:895  payout */\n      dup1\n        /* \"contracts/FlightInsurance.sol\":882:895  return payout */\n      swap2\n      pop\n      pop\n        /* \"contracts/FlightInsurance.sol\":454:903  function calculatePayout(InsuranceTier _userTier) pure private returns (uint16) {... */\n      swap2\n      swap1\n      pop\n      jump\t// out\n        /* \"#utility.yul\":7:82   */\n    tag_57:\n        /* \"#utility.yul\":40:46   */\n      0x00\n        /* \"#utility.yul\":73:75   */\n      0x40\n        /* \"#utility.yul\":67:76   */\n      mload\n        /* \"#utility.yul\":57:76   */\n      swap1\n      pop\n        /* \"#utility.yul\":7:82   */\n      swap1\n      jump\t// out\n        /* \"#utility.yul\":88:205   */\n    tag_58:\n        /* \"#utility.yul\":197:198   */\n      0x00\n        /* \"#utility.yul\":194:195   */\n      0x00\n        /* \"#utility.yul\":187:199   */\n      revert\n        /* \"#utility.yul\":211:328   */\n    tag_59:\n        /* \"#utility.yul\":320:321   */\n      0x00\n        /* \"#utility.yul\":317:318   */\n      0x00\n        /* \"#utility.yul\":310:322   */\n      revert\n        /* \"#utility.yul\":334:420   */\n    tag_60:\n        /* \"#utility.yul\":369:376   */\n      0x00\n        /* \"#utility.yul\":409:413   */\n      0xff\n        /* \"#utility.yul\":402:407   */\n      dup3\n        /* \"#utility.yul\":398:414   */\n      and\n        /* \"#utility.yul\":387:414   */\n      swap1\n      pop\n        /* \"#utility.yul\":334:420   */\n      swap2\n      swap1\n      pop\n      jump\t// out\n        /* \"#utility.yul\":426:544   */\n    tag_61:\n        /* \"#utility.yul\":497:519   */\n      tag_100\n        /* \"#utility.yul\":513:518   */\n      dup2\n        /* \"#utility.yul\":497:519   */\n      tag_60\n      jump\t// in\n    tag_100:\n        /* \"#utility.yul\":490:495   */\n      dup2\n        /* \"#utility.yul\":487:520   */\n      eq\n        /* \"#utility.yul\":477:538   */\n      tag_101\n      jumpi\n        /* \"#utility.yul\":534:535   */\n      0x00\n        /* \"#utility.yul\":531:532   */\n      0x00\n        /* \"#utility.yul\":524:536   */\n      revert\n        /* \"#utility.yul\":477:538   */\n    tag_101:\n        /* \"#utility.yul\":426:544   */\n      pop\n      jump\t// out\n        /* \"#utility.yul\":550:685   */\n    tag_62:\n        /* \"#utility.yul\":594:599   */\n      0x00\n        /* \"#utility.yul\":632:638   */\n      dup2\n        /* \"#utility.yul\":619:639   */\n      calldataload\n        /* \"#utility.yul\":610:639   */\n      swap1\n      pop\n        /* \"#utility.yul\":648:679   */\n      tag_103\n        /* \"#utility.yul\":673:678   */\n      dup2\n        /* \"#utility.yul\":648:679   */\n      tag_61\n      jump\t// in\n    tag_103:\n        /* \"#utility.yul\":550:685   */\n      swap3\n      swap2\n      pop\n      pop\n      jump\t// out\n        /* \"#utility.yul\":691:817   */\n    tag_63:\n        /* \"#utility.yul\":728:735   */\n      0x00\n        /* \"#utility.yul\":768:810   */\n      0xffffffffffffffffffffffffffffffffffffffff\n        /* \"#utility.yul\":761:766   */\n      dup3\n        /* \"#utility.yul\":757:811   */\n      and\n        /* \"#utility.yul\":746:811   */\n      swap1\n      pop\n        /* \"#utility.yul\":691:817   */\n      swap2\n      swap1\n      pop\n      jump\t// out\n        /* \"#utility.yul\":823:919   */\n    tag_64:\n        /* \"#utility.yul\":860:867   */\n      0x00\n        /* \"#utility.yul\":889:913   */\n      tag_106\n        /* \"#utility.yul\":907:912   */\n      dup3\n        /* \"#utility.yul\":889:913   */\n      tag_63\n      jump\t// in\n    tag_106:\n        /* \"#utility.yul\":878:913   */\n      swap1\n      pop\n        /* \"#utility.yul\":823:919   */\n      swap2\n      swap1\n      pop\n      jump\t// out\n        /* \"#utility.yul\":925:1047   */\n    tag_65:\n        /* \"#utility.yul\":998:1022   */\n      tag_108\n        /* \"#utility.yul\":1016:1021   */\n      dup2\n        /* \"#utility.yul\":998:1022   */\n      tag_64\n      jump\t// in\n    tag_108:\n        /* \"#utility.yul\":991:996   */\n      dup2\n        /* \"#utility.yul\":988:1023   */\n      eq\n        /* \"#utility.yul\":978:1041   */\n      tag_109\n      jumpi\n        /* \"#utility.yul\":1037:1038   */\n      0x00\n        /* \"#utility.yul\":1034:1035   */\n      0x00\n        /* \"#utility.yul\":1027:1039   */\n      revert\n        /* \"#utility.yul\":978:1041   */\n    tag_109:\n        /* \"#utility.yul\":925:1047   */\n      pop\n      jump\t// out\n        /* \"#utility.yul\":1053:1192   */\n    tag_66:\n        /* \"#utility.yul\":1099:1104   */\n      0x00\n        /* \"#utility.yul\":1137:1143   */\n      dup2\n        /* \"#utility.yul\":1124:1144   */\n      calldataload\n        /* \"#utility.yul\":1115:1144   */\n      swap1\n      pop\n        /* \"#utility.yul\":1153:1186   */\n      tag_111\n        /* \"#utility.yul\":1180:1185   */\n      dup2\n        /* \"#utility.yul\":1153:1186   */\n      tag_65\n      jump\t// in\n    tag_111:\n        /* \"#utility.yul\":1053:1192   */\n      swap3\n      swap2\n      pop\n      pop\n      jump\t// out\n        /* \"#utility.yul\":1198:1668   */\n    tag_7:\n        /* \"#utility.yul\":1264:1270   */\n      0x00\n        /* \"#utility.yul\":1272:1278   */\n      0x00\n        /* \"#utility.yul\":1321:1323   */\n      0x40\n        /* \"#utility.yul\":1309:1318   */\n      dup4\n        /* \"#utility.yul\":1300:1307   */\n      dup6\n        /* \"#utility.yul\":1296:1319   */\n      sub\n        /* \"#utility.yul\":1292:1324   */\n      slt\n        /* \"#utility.yul\":1289:1408   */\n      iszero\n      tag_113\n      jumpi\n        /* \"#utility.yul\":1327:1406   */\n      tag_114\n      tag_58\n      jump\t// in\n    tag_114:\n        /* \"#utility.yul\":1289:1408   */\n    tag_113:\n        /* \"#utility.yul\":1447:1448   */\n      0x00\n        /* \"#utility.yul\":1472:1523   */\n      tag_115\n        /* \"#utility.yul\":1515:1522   */\n      dup6\n        /* \"#utility.yul\":1506:1512   */\n      dup3\n        /* \"#utility.yul\":1495:1504   */\n      dup7\n        /* \"#utility.yul\":1491:1513   */\n      add\n        /* \"#utility.yul\":1472:1523   */\n      tag_62\n      jump\t// in\n    tag_115:\n        /* \"#utility.yul\":1462:1523   */\n      swap3\n      pop\n        /* \"#utility.yul\":1418:1533   */\n      pop\n        /* \"#utility.yul\":1572:1574   */\n      0x20\n        /* \"#utility.yul\":1598:1651   */\n      tag_116\n        /* \"#utility.yul\":1643:1650   */\n      dup6\n        /* \"#utility.yul\":1634:1640   */\n      dup3\n        /* \"#utility.yul\":1623:1632   */\n      dup7\n        /* \"#utility.yul\":1619:1641   */\n      add\n        /* \"#utility.yul\":1598:1651   */\n      tag_66\n      jump\t// in\n    tag_116:\n        /* \"#utility.yul\":1588:1651   */\n      swap2\n      pop\n        /* \"#utility.yul\":1543:1661   */\n      pop\n        /* \"#utility.yul\":1198:1668   */\n      swap3\n      pop\n      swap3\n      swap1\n      pop\n      jump\t// out\n        /* \"#utility.yul\":1674:1773   */\n    tag_67:\n        /* \"#utility.yul\":1726:1732   */\n      0x00\n        /* \"#utility.yul\":1760:1765   */\n      dup2\n        /* \"#utility.yul\":1754:1766   */\n      mload\n        /* \"#utility.yul\":1744:1766   */\n      swap1\n      pop\n        /* \"#utility.yul\":1674:1773   */\n      swap2\n      swap1\n      pop\n      jump\t// out\n        /* \"#utility.yul\":1779:1948   */\n    tag_68:\n        /* \"#utility.yul\":1863:1874   */\n      0x00\n        /* \"#utility.yul\":1897:1903   */\n      dup3\n        /* \"#utility.yul\":1892:1895   */\n      dup3\n        /* \"#utility.yul\":1885:1904   */\n      mstore\n        /* \"#utility.yul\":1937:1941   */\n      0x20\n        /* \"#utility.yul\":1932:1935   */\n      dup3\n        /* \"#utility.yul\":1928:1942   */\n      add\n        /* \"#utility.yul\":1913:1942   */\n      swap1\n      pop\n        /* \"#utility.yul\":1779:1948   */\n      swap3\n      swap2\n      pop\n      pop\n      jump\t// out\n        /* \"#utility.yul\":1954:2093   */\n    tag_69:\n        /* \"#utility.yul\":2043:2049   */\n      dup3\n        /* \"#utility.yul\":2038:2041   */\n      dup2\n        /* \"#utility.yul\":2033:2036   */\n      dup4\n        /* \"#utility.yul\":2027:2050   */\n      mcopy\n        /* \"#utility.yul\":2084:2085   */\n      0x00\n        /* \"#utility.yul\":2075:2081   */\n      dup4\n        /* \"#utility.yul\":2070:2073   */\n      dup4\n        /* \"#utility.yul\":2066:2082   */\n      add\n        /* \"#utility.yul\":2059:2086   */\n      mstore\n        /* \"#utility.yul\":1954:2093   */\n      pop\n      pop\n      pop\n      jump\t// out\n        /* \"#utility.yul\":2099:2201   */\n    tag_70:\n        /* \"#utility.yul\":2140:2146   */\n      0x00\n        /* \"#utility.yul\":2191:2193   */\n      0x1f\n        /* \"#utility.yul\":2187:2194   */\n      not\n        /* \"#utility.yul\":2182:2184   */\n      0x1f\n        /* \"#utility.yul\":2175:2180   */\n      dup4\n        /* \"#utility.yul\":2171:2185   */\n      add\n        /* \"#utility.yul\":2167:2195   */\n      and\n        /* \"#utility.yul\":2157:2195   */\n      swap1\n      pop\n        /* \"#utility.yul\":2099:2201   */\n      swap2\n      swap1\n      pop\n      jump\t// out\n        /* \"#utility.yul\":2207:2584   */\n    tag_71:\n        /* \"#utility.yul\":2295:2298   */\n      0x00\n        /* \"#utility.yul\":2323:2362   */\n      tag_122\n        /* \"#utility.yul\":2356:2361   */\n      dup3\n        /* \"#utility.yul\":2323:2362   */\n      tag_67\n      jump\t// in\n    tag_122:\n        /* \"#utility.yul\":2378:2449   */\n      tag_123\n        /* \"#utility.yul\":2442:2448   */\n      dup2\n        /* \"#utility.yul\":2437:2440   */\n      dup6\n        /* \"#utility.yul\":2378:2449   */\n      tag_68\n      jump\t// in\n    tag_123:\n        /* \"#utility.yul\":2371:2449   */\n      swap4\n      pop\n        /* \"#utility.yul\":2458:2523   */\n      tag_124\n        /* \"#utility.yul\":2516:2522   */\n      dup2\n        /* \"#utility.yul\":2511:2514   */\n      dup6\n        /* \"#utility.yul\":2504:2508   */\n      0x20\n        /* \"#utility.yul\":2497:2502   */\n      dup7\n        /* \"#utility.yul\":2493:2509   */\n      add\n        /* \"#utility.yul\":2458:2523   */\n      tag_69\n      jump\t// in\n    tag_124:\n        /* \"#utility.yul\":2548:2577   */\n      tag_125\n        /* \"#utility.yul\":2570:2576   */\n      dup2\n        /* \"#utility.yul\":2548:2577   */\n      tag_70\n      jump\t// in\n    tag_125:\n        /* \"#utility.yul\":2543:2546   */\n      dup5\n        /* \"#utility.yul\":2539:2578   */\n      add\n        /* \"#utility.yul\":2532:2578   */\n      swap2\n      pop\n        /* \"#utility.yul\":2299:2584   */\n      pop\n        /* \"#utility.yul\":2207:2584   */\n      swap3\n      swap2\n      pop\n      pop\n      jump\t// out\n        /* \"#utility.yul\":2590:2903   */\n    tag_12:\n        /* \"#utility.yul\":2703:2707   */\n      0x00\n        /* \"#utility.yul\":2741:2743   */\n      0x20\n        /* \"#utility.yul\":2730:2739   */\n      dup3\n        /* \"#utility.yul\":2726:2744   */\n      add\n        /* \"#utility.yul\":2718:2744   */\n      swap1\n      pop\n        /* \"#utility.yul\":2790:2799   */\n      dup2\n        /* \"#utility.yul\":2784:2788   */\n      dup2\n        /* \"#utility.yul\":2780:2800   */\n      sub\n        /* \"#utility.yul\":2776:2777   */\n      0x00\n        /* \"#utility.yul\":2765:2774   */\n      dup4\n        /* \"#utility.yul\":2761:2778   */\n      add\n        /* \"#utility.yul\":2754:2801   */\n      mstore\n        /* \"#utility.yul\":2818:2896   */\n      tag_127\n        /* \"#utility.yul\":2891:2895   */\n      dup2\n        /* \"#utility.yul\":2882:2888   */\n      dup5\n        /* \"#utility.yul\":2818:2896   */\n      tag_71\n      jump\t// in\n    tag_127:\n        /* \"#utility.yul\":2810:2896   */\n      swap1\n      pop\n        /* \"#utility.yul\":2590:2903   */\n      swap3\n      swap2\n      pop\n      pop\n      jump\t// out\n        /* \"#utility.yul\":2909:3077   */\n    tag_72:\n        /* \"#utility.yul\":3049:3069   */\n      0x496e76616c696420757365722074696572210000000000000000000000000000\n        /* \"#utility.yul\":3045:3046   */\n      0x00\n        /* \"#utility.yul\":3037:3043   */\n      dup3\n        /* \"#utility.yul\":3033:3047   */\n      add\n        /* \"#utility.yul\":3026:3070   */\n      mstore\n        /* \"#utility.yul\":2909:3077   */\n      pop\n      jump\t// out\n        /* \"#utility.yul\":3083:3449   */\n    tag_73:\n        /* \"#utility.yul\":3225:3228   */\n      0x00\n        /* \"#utility.yul\":3246:3313   */\n      tag_130\n        /* \"#utility.yul\":3310:3312   */\n      0x12\n        /* \"#utility.yul\":3305:3308   */\n      dup4\n        /* \"#utility.yul\":3246:3313   */\n      tag_68\n      jump\t// in\n    tag_130:\n        /* \"#utility.yul\":3239:3313   */\n      swap2\n      pop\n        /* \"#utility.yul\":3322:3415   */\n      tag_131\n        /* \"#utility.yul\":3411:3414   */\n      dup3\n        /* \"#utility.yul\":3322:3415   */\n      tag_72\n      jump\t// in\n    tag_131:\n        /* \"#utility.yul\":3440:3442   */\n      0x20\n        /* \"#utility.yul\":3435:3438   */\n      dup3\n        /* \"#utility.yul\":3431:3443   */\n      add\n        /* \"#utility.yul\":3424:3443   */\n      swap1\n      pop\n        /* \"#utility.yul\":3083:3449   */\n      swap2\n      swap1\n      pop\n      jump\t// out\n        /* \"#utility.yul\":3455:3874   */\n    tag_17:\n        /* \"#utility.yul\":3621:3625   */\n      0x00\n        /* \"#utility.yul\":3659:3661   */\n      0x20\n        /* \"#utility.yul\":3648:3657   */\n      dup3\n        /* \"#utility.yul\":3644:3662   */\n      add\n        /* \"#utility.yul\":3636:3662   */\n      swap1\n      pop\n        /* \"#utility.yul\":3708:3717   */\n      dup2\n        /* \"#utility.yul\":3702:3706   */\n      dup2\n        /* \"#utility.yul\":3698:3718   */\n      sub\n        /* \"#utility.yul\":3694:3695   */\n      0x00\n        /* \"#utility.yul\":3683:3692   */\n      dup4\n        /* \"#utility.yul\":3679:3696   */\n      add\n        /* \"#utility.yul\":3672:3719   */\n      mstore\n        /* \"#utility.yul\":3736:3867   */\n      tag_133\n        /* \"#utility.yul\":3862:3866   */\n      dup2\n        /* \"#utility.yul\":3736:3867   */\n      tag_73\n      jump\t// in\n    tag_133:\n        /* \"#utility.yul\":3728:3867   */\n      swap1\n      pop\n        /* \"#utility.yul\":3455:3874   */\n      swap2\n      swap1\n      pop\n      jump\t// out\n        /* \"#utility.yul\":3880:4060   */\n    tag_20:\n        /* \"#utility.yul\":3928:4005   */\n      0x4e487b7100000000000000000000000000000000000000000000000000000000\n        /* \"#utility.yul\":3925:3926   */\n      0x00\n        /* \"#utility.yul\":3918:4006   */\n      mstore\n        /* \"#utility.yul\":4025:4029   */\n      0x21\n        /* \"#utility.yul\":4022:4023   */\n      0x04\n        /* \"#utility.yul\":4015:4030   */\n      mstore\n        /* \"#utility.yul\":4049:4053   */\n      0x24\n        /* \"#utility.yul\":4046:4047   */\n      0x00\n        /* \"#utility.yul\":4039:4054   */\n      revert\n        /* \"#utility.yul\":4066:4213   */\n    tag_74:\n        /* \"#utility.yul\":4167:4178   */\n      0x00\n        /* \"#utility.yul\":4204:4207   */\n      dup2\n        /* \"#utility.yul\":4189:4207   */\n      swap1\n      pop\n        /* \"#utility.yul\":4066:4213   */\n      swap3\n      swap2\n      pop\n      pop\n      jump\t// out\n        /* \"#utility.yul\":4219:4333   */\n    tag_75:\n      pop\n      jump\t// out\n        /* \"#utility.yul\":4339:4737   */\n    tag_76:\n        /* \"#utility.yul\":4498:4501   */\n      0x00\n        /* \"#utility.yul\":4519:4602   */\n      tag_138\n        /* \"#utility.yul\":4600:4601   */\n      0x00\n        /* \"#utility.yul\":4595:4598   */\n      dup4\n        /* \"#utility.yul\":4519:4602   */\n      tag_74\n      jump\t// in\n    tag_138:\n        /* \"#utility.yul\":4512:4602   */\n      swap2\n      pop\n        /* \"#utility.yul\":4611:4704   */\n      tag_139\n        /* \"#utility.yul\":4700:4703   */\n      dup3\n        /* \"#utility.yul\":4611:4704   */\n      tag_75\n      jump\t// in\n    tag_139:\n        /* \"#utility.yul\":4729:4730   */\n      0x00\n        /* \"#utility.yul\":4724:4727   */\n      dup3\n        /* \"#utility.yul\":4720:4731   */\n      add\n        /* \"#utility.yul\":4713:4731   */\n      swap1\n      pop\n        /* \"#utility.yul\":4339:4737   */\n      swap2\n      swap1\n      pop\n      jump\t// out\n        /* \"#utility.yul\":4743:5122   */\n    tag_24:\n        /* \"#utility.yul\":4927:4930   */\n      0x00\n        /* \"#utility.yul\":4949:5096   */\n      tag_141\n        /* \"#utility.yul\":5092:5095   */\n      dup3\n        /* \"#utility.yul\":4949:5096   */\n      tag_76\n      jump\t// in\n    tag_141:\n        /* \"#utility.yul\":4942:5096   */\n      swap2\n      pop\n        /* \"#utility.yul\":5113:5116   */\n      dup2\n        /* \"#utility.yul\":5106:5116   */\n      swap1\n      pop\n        /* \"#utility.yul\":4743:5122   */\n      swap2\n      swap1\n      pop\n      jump\t// out\n        /* \"#utility.yul\":5128:5246   */\n    tag_77:\n        /* \"#utility.yul\":5215:5239   */\n      tag_143\n        /* \"#utility.yul\":5233:5238   */\n      dup2\n        /* \"#utility.yul\":5215:5239   */\n      tag_64\n      jump\t// in\n    tag_143:\n        /* \"#utility.yul\":5210:5213   */\n      dup3\n        /* \"#utility.yul\":5203:5240   */\n      mstore\n        /* \"#utility.yul\":5128:5246   */\n      pop\n      pop\n      jump\t// out\n        /* \"#utility.yul\":5252:5341   */\n    tag_78:\n        /* \"#utility.yul\":5288:5295   */\n      0x00\n        /* \"#utility.yul\":5328:5334   */\n      0xffff\n        /* \"#utility.yul\":5321:5326   */\n      dup3\n        /* \"#utility.yul\":5317:5335   */\n      and\n        /* \"#utility.yul\":5306:5335   */\n      swap1\n      pop\n        /* \"#utility.yul\":5252:5341   */\n      swap2\n      swap1\n      pop\n      jump\t// out\n        /* \"#utility.yul\":5347:5424   */\n    tag_79:\n        /* \"#utility.yul\":5384:5391   */\n      0x00\n        /* \"#utility.yul\":5413:5418   */\n      dup2\n        /* \"#utility.yul\":5402:5418   */\n      swap1\n      pop\n        /* \"#utility.yul\":5347:5424   */\n      swap2\n      swap1\n      pop\n      jump\t// out\n        /* \"#utility.yul\":5430:5490   */\n    tag_80:\n        /* \"#utility.yul\":5458:5461   */\n      0x00\n        /* \"#utility.yul\":5479:5484   */\n      dup2\n        /* \"#utility.yul\":5472:5484   */\n      swap1\n      pop\n        /* \"#utility.yul\":5430:5490   */\n      swap2\n      swap1\n      pop\n      jump\t// out\n        /* \"#utility.yul\":5496:5636   */\n    tag_81:\n        /* \"#utility.yul\":5545:5554   */\n      0x00\n        /* \"#utility.yul\":5578:5630   */\n      tag_148\n        /* \"#utility.yul\":5596:5629   */\n      tag_149\n        /* \"#utility.yul\":5605:5628   */\n      tag_150\n        /* \"#utility.yul\":5622:5627   */\n      dup5\n        /* \"#utility.yul\":5605:5628   */\n      tag_78\n      jump\t// in\n    tag_150:\n        /* \"#utility.yul\":5596:5629   */\n      tag_80\n      jump\t// in\n    tag_149:\n        /* \"#utility.yul\":5578:5630   */\n      tag_79\n      jump\t// in\n    tag_148:\n        /* \"#utility.yul\":5565:5630   */\n      swap1\n      pop\n        /* \"#utility.yul\":5496:5636   */\n      swap2\n      swap1\n      pop\n      jump\t// out\n        /* \"#utility.yul\":5642:5771   */\n    tag_82:\n        /* \"#utility.yul\":5728:5764   */\n      tag_152\n        /* \"#utility.yul\":5758:5763   */\n      dup2\n        /* \"#utility.yul\":5728:5764   */\n      tag_81\n      jump\t// in\n    tag_152:\n        /* \"#utility.yul\":5723:5726   */\n      dup3\n        /* \"#utility.yul\":5716:5765   */\n      mstore\n        /* \"#utility.yul\":5642:5771   */\n      pop\n      pop\n      jump\t// out\n        /* \"#utility.yul\":5777:6107   */\n    tag_30:\n        /* \"#utility.yul\":5897:5901   */\n      0x00\n        /* \"#utility.yul\":5935:5937   */\n      0x40\n        /* \"#utility.yul\":5924:5933   */\n      dup3\n        /* \"#utility.yul\":5920:5938   */\n      add\n        /* \"#utility.yul\":5912:5938   */\n      swap1\n      pop\n        /* \"#utility.yul\":5948:6019   */\n      tag_154\n        /* \"#utility.yul\":6016:6017   */\n      0x00\n        /* \"#utility.yul\":6005:6014   */\n      dup4\n        /* \"#utility.yul\":6001:6018   */\n      add\n        /* \"#utility.yul\":5992:5998   */\n      dup6\n        /* \"#utility.yul\":5948:6019   */\n      tag_77\n      jump\t// in\n    tag_154:\n        /* \"#utility.yul\":6029:6100   */\n      tag_155\n        /* \"#utility.yul\":6096:6098   */\n      0x20\n        /* \"#utility.yul\":6085:6094   */\n      dup4\n        /* \"#utility.yul\":6081:6099   */\n      add\n        /* \"#utility.yul\":6072:6078   */\n      dup5\n        /* \"#utility.yul\":6029:6100   */\n      tag_82\n      jump\t// in\n    tag_155:\n        /* \"#utility.yul\":5777:6107   */\n      swap4\n      swap3\n      pop\n      pop\n      pop\n      jump\t// out\n        /* \"#utility.yul\":6113:6230   */\n    tag_83:\n        /* \"#utility.yul\":6222:6223   */\n      0x00\n        /* \"#utility.yul\":6219:6220   */\n      0x00\n        /* \"#utility.yul\":6212:6224   */\n      revert\n        /* \"#utility.yul\":6236:6353   */\n    tag_84:\n        /* \"#utility.yul\":6345:6346   */\n      0x00\n        /* \"#utility.yul\":6342:6343   */\n      0x00\n        /* \"#utility.yul\":6335:6347   */\n      revert\n        /* \"#utility.yul\":6359:6539   */\n    tag_85:\n        /* \"#utility.yul\":6407:6484   */\n      0x4e487b7100000000000000000000000000000000000000000000000000000000\n        /* \"#utility.yul\":6404:6405   */\n      0x00\n        /* \"#utility.yul\":6397:6485   */\n      mstore\n        /* \"#utility.yul\":6504:6508   */\n      0x41\n        /* \"#utility.yul\":6501:6502   */\n      0x04\n        /* \"#utility.yul\":6494:6509   */\n      mstore\n        /* \"#utility.yul\":6528:6532   */\n      0x24\n        /* \"#utility.yul\":6525:6526   */\n      0x00\n        /* \"#utility.yul\":6518:6533   */\n      revert\n        /* \"#utility.yul\":6545:6826   */\n    tag_86:\n        /* \"#utility.yul\":6628:6655   */\n      tag_160\n        /* \"#utility.yul\":6650:6654   */\n      dup3\n        /* \"#utility.yul\":6628:6655   */\n      tag_70\n      jump\t// in\n    tag_160:\n        /* \"#utility.yul\":6620:6626   */\n      dup2\n        /* \"#utility.yul\":6616:6656   */\n      add\n        /* \"#utility.yul\":6758:6764   */\n      dup2\n        /* \"#utility.yul\":6746:6756   */\n      dup2\n        /* \"#utility.yul\":6743:6765   */\n      lt\n        /* \"#utility.yul\":6722:6740   */\n      0xffffffffffffffff\n        /* \"#utility.yul\":6710:6720   */\n      dup3\n        /* \"#utility.yul\":6707:6741   */\n      gt\n        /* \"#utility.yul\":6704:6766   */\n      or\n        /* \"#utility.yul\":6701:6789   */\n      iszero\n      tag_161\n      jumpi\n        /* \"#utility.yul\":6769:6787   */\n      tag_162\n      tag_85\n      jump\t// in\n    tag_162:\n        /* \"#utility.yul\":6701:6789   */\n    tag_161:\n        /* \"#utility.yul\":6809:6819   */\n      dup1\n        /* \"#utility.yul\":6805:6807   */\n      0x40\n        /* \"#utility.yul\":6798:6820   */\n      mstore\n        /* \"#utility.yul\":6588:6826   */\n      pop\n        /* \"#utility.yul\":6545:6826   */\n      pop\n      pop\n      jump\t// out\n        /* \"#utility.yul\":6832:6961   */\n    tag_87:\n        /* \"#utility.yul\":6866:6872   */\n      0x00\n        /* \"#utility.yul\":6893:6913   */\n      tag_164\n      tag_57\n      jump\t// in\n    tag_164:\n        /* \"#utility.yul\":6883:6913   */\n      swap1\n      pop\n        /* \"#utility.yul\":6922:6955   */\n      tag_165\n        /* \"#utility.yul\":6950:6954   */\n      dup3\n        /* \"#utility.yul\":6942:6948   */\n      dup3\n        /* \"#utility.yul\":6922:6955   */\n      tag_86\n      jump\t// in\n    tag_165:\n        /* \"#utility.yul\":6832:6961   */\n      swap2\n      swap1\n      pop\n      jump\t// out\n        /* \"#utility.yul\":6967:7275   */\n    tag_88:\n        /* \"#utility.yul\":7029:7033   */\n      0x00\n        /* \"#utility.yul\":7119:7137   */\n      0xffffffffffffffff\n        /* \"#utility.yul\":7111:7117   */\n      dup3\n        /* \"#utility.yul\":7108:7138   */\n      gt\n        /* \"#utility.yul\":7105:7161   */\n      iszero\n      tag_167\n      jumpi\n        /* \"#utility.yul\":7141:7159   */\n      tag_168\n      tag_85\n      jump\t// in\n    tag_168:\n        /* \"#utility.yul\":7105:7161   */\n    tag_167:\n        /* \"#utility.yul\":7179:7208   */\n      tag_169\n        /* \"#utility.yul\":7201:7207   */\n      dup3\n        /* \"#utility.yul\":7179:7208   */\n      tag_70\n      jump\t// in\n    tag_169:\n        /* \"#utility.yul\":7171:7208   */\n      swap1\n      pop\n        /* \"#utility.yul\":7263:7267   */\n      0x20\n        /* \"#utility.yul\":7257:7261   */\n      dup2\n        /* \"#utility.yul\":7253:7268   */\n      add\n        /* \"#utility.yul\":7245:7268   */\n      swap1\n      pop\n        /* \"#utility.yul\":6967:7275   */\n      swap2\n      swap1\n      pop\n      jump\t// out\n        /* \"#utility.yul\":7281:7715   */\n    tag_89:\n        /* \"#utility.yul\":7370:7375   */\n      0x00\n        /* \"#utility.yul\":7395:7461   */\n      tag_171\n        /* \"#utility.yul\":7411:7460   */\n      tag_172\n        /* \"#utility.yul\":7453:7459   */\n      dup5\n        /* \"#utility.yul\":7411:7460   */\n      tag_88\n      jump\t// in\n    tag_172:\n        /* \"#utility.yul\":7395:7461   */\n      tag_87\n      jump\t// in\n    tag_171:\n        /* \"#utility.yul\":7386:7461   */\n      swap1\n      pop\n        /* \"#utility.yul\":7484:7490   */\n      dup3\n        /* \"#utility.yul\":7477:7482   */\n      dup2\n        /* \"#utility.yul\":7470:7491   */\n      mstore\n        /* \"#utility.yul\":7522:7526   */\n      0x20\n        /* \"#utility.yul\":7515:7520   */\n      dup2\n        /* \"#utility.yul\":7511:7527   */\n      add\n        /* \"#utility.yul\":7560:7563   */\n      dup5\n        /* \"#utility.yul\":7551:7557   */\n      dup5\n        /* \"#utility.yul\":7546:7549   */\n      dup5\n        /* \"#utility.yul\":7542:7558   */\n      add\n        /* \"#utility.yul\":7539:7564   */\n      gt\n        /* \"#utility.yul\":7536:7648   */\n      iszero\n      tag_173\n      jumpi\n        /* \"#utility.yul\":7567:7646   */\n      tag_174\n      tag_84\n      jump\t// in\n    tag_174:\n        /* \"#utility.yul\":7536:7648   */\n    tag_173:\n        /* \"#utility.yul\":7657:7709   */\n      tag_175\n        /* \"#utility.yul\":7702:7708   */\n      dup5\n        /* \"#utility.yul\":7697:7700   */\n      dup3\n        /* \"#utility.yul\":7692:7695   */\n      dup6\n        /* \"#utility.yul\":7657:7709   */\n      tag_69\n      jump\t// in\n    tag_175:\n        /* \"#utility.yul\":7376:7715   */\n      pop\n        /* \"#utility.yul\":7281:7715   */\n      swap4\n      swap3\n      pop\n      pop\n      pop\n      jump\t// out\n        /* \"#utility.yul\":7735:8090   */\n    tag_90:\n        /* \"#utility.yul\":7802:7807   */\n      0x00\n        /* \"#utility.yul\":7851:7854   */\n      dup3\n        /* \"#utility.yul\":7844:7848   */\n      0x1f\n        /* \"#utility.yul\":7836:7842   */\n      dup4\n        /* \"#utility.yul\":7832:7849   */\n      add\n        /* \"#utility.yul\":7828:7855   */\n      slt\n        /* \"#utility.yul\":7818:7940   */\n      tag_177\n      jumpi\n        /* \"#utility.yul\":7859:7938   */\n      tag_178\n      tag_83\n      jump\t// in\n    tag_178:\n        /* \"#utility.yul\":7818:7940   */\n    tag_177:\n        /* \"#utility.yul\":7969:7975   */\n      dup2\n        /* \"#utility.yul\":7963:7976   */\n      mload\n        /* \"#utility.yul\":7994:8084   */\n      tag_179\n        /* \"#utility.yul\":8080:8083   */\n      dup5\n        /* \"#utility.yul\":8072:8078   */\n      dup3\n        /* \"#utility.yul\":8065:8069   */\n      0x20\n        /* \"#utility.yul\":8057:8063   */\n      dup7\n        /* \"#utility.yul\":8053:8070   */\n      add\n        /* \"#utility.yul\":7994:8084   */\n      tag_89\n      jump\t// in\n    tag_179:\n        /* \"#utility.yul\":7985:8084   */\n      swap2\n      pop\n        /* \"#utility.yul\":7808:8090   */\n      pop\n        /* \"#utility.yul\":7735:8090   */\n      swap3\n      swap2\n      pop\n      pop\n      jump\t// out\n        /* \"#utility.yul\":8096:8620   */\n    tag_33:\n        /* \"#utility.yul\":8176:8182   */\n      0x00\n        /* \"#utility.yul\":8225:8227   */\n      0x20\n        /* \"#utility.yul\":8213:8222   */\n      dup3\n        /* \"#utility.yul\":8204:8211   */\n      dup5\n        /* \"#utility.yul\":8200:8223   */\n      sub\n        /* \"#utility.yul\":8196:8228   */\n      slt\n        /* \"#utility.yul\":8193:8312   */\n      iszero\n      tag_181\n      jumpi\n        /* \"#utility.yul\":8231:8310   */\n      tag_182\n      tag_58\n      jump\t// in\n    tag_182:\n        /* \"#utility.yul\":8193:8312   */\n    tag_181:\n        /* \"#utility.yul\":8372:8373   */\n      0x00\n        /* \"#utility.yul\":8361:8370   */\n      dup3\n        /* \"#utility.yul\":8357:8374   */\n      add\n        /* \"#utility.yul\":8351:8375   */\n      mload\n        /* \"#utility.yul\":8402:8420   */\n      0xffffffffffffffff\n        /* \"#utility.yul\":8394:8400   */\n      dup2\n        /* \"#utility.yul\":8391:8421   */\n      gt\n        /* \"#utility.yul\":8388:8505   */\n      iszero\n      tag_183\n      jumpi\n        /* \"#utility.yul\":8424:8503   */\n      tag_184\n      tag_59\n      jump\t// in\n    tag_184:\n        /* \"#utility.yul\":8388:8505   */\n    tag_183:\n        /* \"#utility.yul\":8529:8603   */\n      tag_185\n        /* \"#utility.yul\":8595:8602   */\n      dup5\n        /* \"#utility.yul\":8586:8592   */\n      dup3\n        /* \"#utility.yul\":8575:8584   */\n      dup6\n        /* \"#utility.yul\":8571:8593   */\n      add\n        /* \"#utility.yul\":8529:8603   */\n      tag_90\n      jump\t// in\n    tag_185:\n        /* \"#utility.yul\":8519:8603   */\n      swap2\n      pop\n        /* \"#utility.yul\":8322:8613   */\n      pop\n        /* \"#utility.yul\":8096:8620   */\n      swap3\n      swap2\n      pop\n      pop\n      jump\t// out\n        /* \"#utility.yul\":8626:9157   */\n    tag_35:\n        /* \"#utility.yul\":8794:8798   */\n      0x00\n        /* \"#utility.yul\":8832:8834   */\n      0x60\n        /* \"#utility.yul\":8821:8830   */\n      dup3\n        /* \"#utility.yul\":8817:8835   */\n      add\n        /* \"#utility.yul\":8809:8835   */\n      swap1\n      pop\n        /* \"#utility.yul\":8845:8916   */\n      tag_187\n        /* \"#utility.yul\":8913:8914   */\n      0x00\n        /* \"#utility.yul\":8902:8911   */\n      dup4\n        /* \"#utility.yul\":8898:8915   */\n      add\n        /* \"#utility.yul\":8889:8895   */\n      dup7\n        /* \"#utility.yul\":8845:8916   */\n      tag_77\n      jump\t// in\n    tag_187:\n        /* \"#utility.yul\":8926:8997   */\n      tag_188\n        /* \"#utility.yul\":8993:8995   */\n      0x20\n        /* \"#utility.yul\":8982:8991   */\n      dup4\n        /* \"#utility.yul\":8978:8996   */\n      add\n        /* \"#utility.yul\":8969:8975   */\n      dup6\n        /* \"#utility.yul\":8926:8997   */\n      tag_82\n      jump\t// in\n    tag_188:\n        /* \"#utility.yul\":9044:9053   */\n      dup2\n        /* \"#utility.yul\":9038:9042   */\n      dup2\n        /* \"#utility.yul\":9034:9054   */\n      sub\n        /* \"#utility.yul\":9029:9031   */\n      0x40\n        /* \"#utility.yul\":9018:9027   */\n      dup4\n        /* \"#utility.yul\":9014:9032   */\n      add\n        /* \"#utility.yul\":9007:9055   */\n      mstore\n        /* \"#utility.yul\":9072:9150   */\n      tag_189\n        /* \"#utility.yul\":9145:9149   */\n      dup2\n        /* \"#utility.yul\":9136:9142   */\n      dup5\n        /* \"#utility.yul\":9072:9150   */\n      tag_71\n      jump\t// in\n    tag_189:\n        /* \"#utility.yul\":9064:9150   */\n      swap1\n      pop\n        /* \"#utility.yul\":8626:9157   */\n      swap5\n      swap4\n      pop\n      pop\n      pop\n      pop\n      jump\t// out\n        /* \"#utility.yul\":9163:9343   */\n    tag_91:\n        /* \"#utility.yul\":9211:9288   */\n      0x4e487b7100000000000000000000000000000000000000000000000000000000\n        /* \"#utility.yul\":9208:9209   */\n      0x00\n        /* \"#utility.yul\":9201:9289   */\n      mstore\n        /* \"#utility.yul\":9308:9312   */\n      0x22\n        /* \"#utility.yul\":9305:9306   */\n      0x04\n        /* \"#utility.yul\":9298:9313   */\n      mstore\n        /* \"#utility.yul\":9332:9336   */\n      0x24\n        /* \"#utility.yul\":9329:9330   */\n      0x00\n        /* \"#utility.yul\":9322:9337   */\n      revert\n        /* \"#utility.yul\":9349:9669   */\n    tag_37:\n        /* \"#utility.yul\":9393:9399   */\n      0x00\n        /* \"#utility.yul\":9430:9431   */\n      0x02\n        /* \"#utility.yul\":9424:9428   */\n      dup3\n        /* \"#utility.yul\":9420:9432   */\n      div\n        /* \"#utility.yul\":9410:9432   */\n      swap1\n      pop\n        /* \"#utility.yul\":9477:9478   */\n      0x01\n        /* \"#utility.yul\":9471:9475   */\n      dup3\n        /* \"#utility.yul\":9467:9479   */\n      and\n        /* \"#utility.yul\":9498:9516   */\n      dup1\n        /* \"#utility.yul\":9488:9569   */\n      tag_192\n      jumpi\n        /* \"#utility.yul\":9554:9558   */\n      0x7f\n        /* \"#utility.yul\":9546:9552   */\n      dup3\n        /* \"#utility.yul\":9542:9559   */\n      and\n        /* \"#utility.yul\":9532:9559   */\n      swap2\n      pop\n        /* \"#utility.yul\":9488:9569   */\n    tag_192:\n        /* \"#utility.yul\":9616:9618   */\n      0x20\n        /* \"#utility.yul\":9608:9614   */\n      dup3\n        /* \"#utility.yul\":9605:9619   */\n      lt\n        /* \"#utility.yul\":9585:9603   */\n      dup2\n        /* \"#utility.yul\":9582:9620   */\n      sub\n        /* \"#utility.yul\":9579:9663   */\n      tag_193\n      jumpi\n        /* \"#utility.yul\":9635:9653   */\n      tag_194\n      tag_91\n      jump\t// in\n    tag_194:\n        /* \"#utility.yul\":9579:9663   */\n    tag_193:\n        /* \"#utility.yul\":9400:9669   */\n      pop\n        /* \"#utility.yul\":9349:9669   */\n      swap2\n      swap1\n      pop\n      jump\t// out\n        /* \"#utility.yul\":9675:9848   */\n    tag_92:\n        /* \"#utility.yul\":9815:9840   */\n      0x496e76616c696420696e737572616e6365207469657221000000000000000000\n        /* \"#utility.yul\":9811:9812   */\n      0x00\n        /* \"#utility.yul\":9803:9809   */\n      dup3\n        /* \"#utility.yul\":9799:9813   */\n      add\n        /* \"#utility.yul\":9792:9841   */\n      mstore\n        /* \"#utility.yul\":9675:9848   */\n      pop\n      jump\t// out\n        /* \"#utility.yul\":9854:10220   */\n    tag_93:\n        /* \"#utility.yul\":9996:9999   */\n      0x00\n        /* \"#utility.yul\":10017:10084   */\n      tag_197\n        /* \"#utility.yul\":10081:10083   */\n      0x17\n        /* \"#utility.yul\":10076:10079   */\n      dup4\n        /* \"#utility.yul\":10017:10084   */\n      tag_68\n      jump\t// in\n    tag_197:\n        /* \"#utility.yul\":10010:10084   */\n      swap2\n      pop\n        /* \"#utility.yul\":10093:10186   */\n      tag_198\n        /* \"#utility.yul\":10182:10185   */\n      dup3\n        /* \"#utility.yul\":10093:10186   */\n      tag_92\n      jump\t// in\n    tag_198:\n        /* \"#utility.yul\":10211:10213   */\n      0x20\n        /* \"#utility.yul\":10206:10209   */\n      dup3\n        /* \"#utility.yul\":10202:10214   */\n      add\n        /* \"#utility.yul\":10195:10214   */\n      swap1\n      pop\n        /* \"#utility.yul\":9854:10220   */\n      swap2\n      swap1\n      pop\n      jump\t// out\n        /* \"#utility.yul\":10226:10645   */\n    tag_56:\n        /* \"#utility.yul\":10392:10396   */\n      0x00\n        /* \"#utility.yul\":10430:10432   */\n      0x20\n        /* \"#utility.yul\":10419:10428   */\n      dup3\n        /* \"#utility.yul\":10415:10433   */\n      add\n        /* \"#utility.yul\":10407:10433   */\n      swap1\n      pop\n        /* \"#utility.yul\":10479:10488   */\n      dup2\n        /* \"#utility.yul\":10473:10477   */\n      dup2\n        /* \"#utility.yul\":10469:10489   */\n      sub\n        /* \"#utility.yul\":10465:10466   */\n      0x00\n        /* \"#utility.yul\":10454:10463   */\n      dup4\n        /* \"#utility.yul\":10450:10467   */\n      add\n        /* \"#utility.yul\":10443:10490   */\n      mstore\n        /* \"#utility.yul\":10507:10638   */\n      tag_200\n        /* \"#utility.yul\":10633:10637   */\n      dup2\n        /* \"#utility.yul\":10507:10638   */\n      tag_93\n      jump\t// in\n    tag_200:\n        /* \"#utility.yul\":10499:10638   */\n      swap1\n      pop\n        /* \"#utility.yul\":10226:10645   */\n      swap2\n      swap1\n      pop\n      jump\t// out\n\n    auxdata: 0xa264697066735822122098d2eb4fb629b56d2a9b983111e76bcbd555298f3bf69f07149ce4c54231a67764736f6c634300081c0033\n}\n",
				"bytecode": {
					"linkReferences": {},
					"object": "608060405234801561000f575f5ffd5b50604051610a4e380380610a4e83398181016040528101906100319190610103565b5f73ffffffffffffffffffffffffffffffffffffffff168173ffffffffffffffffffffffffffffffffffffffff160361009f576040517f08c379a000000000000000000000000000000000000000000000000000000000815260040161009690610188565b60405180910390fd5b506101a6565b5f5ffd5b5f73ffffffffffffffffffffffffffffffffffffffff82169050919050565b5f6100d2826100a9565b9050919050565b6100e2816100c8565b81146100ec575f5ffd5b50565b5f815190506100fd816100d9565b92915050565b5f60208284031215610118576101176100a5565b5b5f610125848285016100ef565b91505092915050565b5f82825260208201905092915050565b7f496e76616c69642073656e64696e672077616c6c6574210000000000000000005f82015250565b5f61017260178361012e565b915061017d8261013e565b602082019050919050565b5f6020820190508181035f83015261019f81610166565b9050919050565b61089b806101b35f395ff3fe608060405234801561000f575f5ffd5b5060043610610034575f3560e01c80637851cc061461003857806392dd427b14610054575b5f5ffd5b610052600480360381019061004d91906103d6565b610072565b005b61005c6101fb565b6040516100699190610484565b60405180910390f35b5f8260ff1610158015610089575060018260ff1611155b6100c8576040517f08c379a00000000000000000000000000000000000000000000000000000000081526004016100bf906104ee565b60405180910390fd5b5f8260ff1660018111156100df576100de61050c565b5b90505f6100eb82610286565b90505f5f8473ffffffffffffffffffffffffffffffffffffffff168361ffff1660405161011790610566565b5f6040518083038185875af1925050503d805f8114610151576040519150601f19603f3d011682016040523d82523d5f602084013e610156565b606091505b5091509150811561019f577f6c114f03096d92b098f0f087d8fd4a756d362d86a9649a07142404e7fd1d77b585846040516101929291906105d8565b60405180910390a16101f3565b5f818060200190518101906101b4919061071d565b90507fb50bad9d607d2eea3965c8f8d06b1656ee8d5977f65b49e355adebc65a6b86b48685836040516101e993929190610764565b60405180910390a1505b505050505050565b5f8054610207906107cd565b80601f0160208091040260200160405190810160405280929190818152602001828054610233906107cd565b801561027e5780601f106102555761010080835404028352916020019161027e565b820191905f5260205f20905b81548152906001019060200180831161026157829003601f168201915b505050505081565b5f5f5f600181111561029b5761029a61050c565b5b8360018111156102ae576102ad61050c565b5b036102bc576001905061032c565b6001808111156102cf576102ce61050c565b5b8360018111156102e2576102e161050c565b5b036102f0576003905061032b565b6040517f08c379a000000000000000000000000000000000000000000000000000000000815260040161032290610847565b60405180910390fd5b5b80915050919050565b5f604051905090565b5f5ffd5b5f5ffd5b5f60ff82169050919050565b61035b81610346565b8114610365575f5ffd5b50565b5f8135905061037681610352565b92915050565b5f73ffffffffffffffffffffffffffffffffffffffff82169050919050565b5f6103a58261037c565b9050919050565b6103b58161039b565b81146103bf575f5ffd5b50565b5f813590506103d0816103ac565b92915050565b5f5f604083850312156103ec576103eb61033e565b5b5f6103f985828601610368565b925050602061040a858286016103c2565b9150509250929050565b5f81519050919050565b5f82825260208201905092915050565b8281835e5f83830152505050565b5f601f19601f8301169050919050565b5f61045682610414565b610460818561041e565b935061047081856020860161042e565b6104798161043c565b840191505092915050565b5f6020820190508181035f83015261049c818461044c565b905092915050565b7f496e76616c6964207573657220746965722100000000000000000000000000005f82015250565b5f6104d860128361041e565b91506104e3826104a4565b602082019050919050565b5f6020820190508181035f830152610505816104cc565b9050919050565b7f4e487b71000000000000000000000000000000000000000000000000000000005f52602160045260245ffd5b5f81905092915050565b50565b5f6105515f83610539565b915061055c82610543565b5f82019050919050565b5f61057082610546565b9150819050919050565b6105838161039b565b82525050565b5f61ffff82169050919050565b5f819050919050565b5f819050919050565b5f6105c26105bd6105b884610589565b61059f565b610596565b9050919050565b6105d2816105a8565b82525050565b5f6040820190506105eb5f83018561057a565b6105f860208301846105c9565b9392505050565b5f5ffd5b5f5ffd5b7f4e487b71000000000000000000000000000000000000000000000000000000005f52604160045260245ffd5b61063d8261043c565b810181811067ffffffffffffffff8211171561065c5761065b610607565b5b80604052505050565b5f61066e610335565b905061067a8282610634565b919050565b5f67ffffffffffffffff82111561069957610698610607565b5b6106a28261043c565b9050602081019050919050565b5f6106c16106bc8461067f565b610665565b9050828152602081018484840111156106dd576106dc610603565b5b6106e884828561042e565b509392505050565b5f82601f830112610704576107036105ff565b5b81516107148482602086016106af565b91505092915050565b5f602082840312156107325761073161033e565b5b5f82015167ffffffffffffffff81111561074f5761074e610342565b5b61075b848285016106f0565b91505092915050565b5f6060820190506107775f83018661057a565b61078460208301856105c9565b8181036040830152610796818461044c565b9050949350505050565b7f4e487b71000000000000000000000000000000000000000000000000000000005f52602260045260245ffd5b5f60028204905060018216806107e457607f821691505b6020821081036107f7576107f66107a0565b5b50919050565b7f496e76616c696420696e737572616e63652074696572210000000000000000005f82015250565b5f61083160178361041e565b915061083c826107fd565b602082019050919050565b5f6020820190508181035f83015261085e81610825565b905091905056fea264697066735822122098d2eb4fb629b56d2a9b983111e76bcbd555298f3bf69f07149ce4c54231a67764736f6c634300081c0033",
					"opcodes": "PUSH1 0x80 PUSH1 0x40 MSTORE CALLVALUE DUP1 ISZERO PUSH2 0xF JUMPI PUSH0 PUSH0 REVERT JUMPDEST POP PUSH1 0x40 MLOAD PUSH2 0xA4E CODESIZE SUB DUP1 PUSH2 0xA4E DUP4 CODECOPY DUP2 DUP2 ADD PUSH1 0x40 MSTORE DUP2 ADD SWAP1 PUSH2 0x31 SWAP2 SWAP1 PUSH2 0x103 JUMP JUMPDEST PUSH0 PUSH20 0xFFFFFFFFFFFFFFFFFFFFFFFFFFFFFFFFFFFFFFFF AND DUP2 PUSH20 0xFFFFFFFFFFFFFFFFFFFFFFFFFFFFFFFFFFFFFFFF AND SUB PUSH2 0x9F JUMPI PUSH1 0x40 MLOAD PUSH32 0x8C379A000000000000000000000000000000000000000000000000000000000 DUP2 MSTORE PUSH1 0x4 ADD PUSH2 0x96 SWAP1 PUSH2 0x188 JUMP JUMPDEST PUSH1 0x40 MLOAD DUP1 SWAP2 SUB SWAP1 REVERT JUMPDEST POP PUSH2 0x1A6 JUMP JUMPDEST PUSH0 PUSH0 REVERT JUMPDEST PUSH0 PUSH20 0xFFFFFFFFFFFFFFFFFFFFFFFFFFFFFFFFFFFFFFFF DUP3 AND SWAP1 POP SWAP2 SWAP1 POP JUMP JUMPDEST PUSH0 PUSH2 0xD2 DUP3 PUSH2 0xA9 JUMP JUMPDEST SWAP1 POP SWAP2 SWAP1 POP JUMP JUMPDEST PUSH2 0xE2 DUP2 PUSH2 0xC8 JUMP JUMPDEST DUP2 EQ PUSH2 0xEC JUMPI PUSH0 PUSH0 REVERT JUMPDEST POP JUMP JUMPDEST PUSH0 DUP2 MLOAD SWAP1 POP PUSH2 0xFD DUP2 PUSH2 0xD9 JUMP JUMPDEST SWAP3 SWAP2 POP POP JUMP JUMPDEST PUSH0 PUSH1 0x20 DUP3 DUP5 SUB SLT ISZERO PUSH2 0x118 JUMPI PUSH2 0x117 PUSH2 0xA5 JUMP JUMPDEST JUMPDEST PUSH0 PUSH2 0x125 DUP5 DUP3 DUP6 ADD PUSH2 0xEF JUMP JUMPDEST SWAP2 POP POP SWAP3 SWAP2 POP POP JUMP JUMPDEST PUSH0 DUP3 DUP3 MSTORE PUSH1 0x20 DUP3 ADD SWAP1 POP SWAP3 SWAP2 POP POP JUMP JUMPDEST PUSH32 0x496E76616C69642073656E64696E672077616C6C657421000000000000000000 PUSH0 DUP3 ADD MSTORE POP JUMP JUMPDEST PUSH0 PUSH2 0x172 PUSH1 0x17 DUP4 PUSH2 0x12E JUMP JUMPDEST SWAP2 POP PUSH2 0x17D DUP3 PUSH2 0x13E JUMP JUMPDEST PUSH1 0x20 DUP3 ADD SWAP1 POP SWAP2 SWAP1 POP JUMP JUMPDEST PUSH0 PUSH1 0x20 DUP3 ADD SWAP1 POP DUP2 DUP2 SUB PUSH0 DUP4 ADD MSTORE PUSH2 0x19F DUP2 PUSH2 0x166 JUMP JUMPDEST SWAP1 POP SWAP2 SWAP1 POP JUMP JUMPDEST PUSH2 0x89B DUP1 PUSH2 0x1B3 PUSH0 CODECOPY PUSH0 RETURN INVALID PUSH1 0x80 PUSH1 0x40 MSTORE CALLVALUE DUP1 ISZERO PUSH2 0xF JUMPI PUSH0 PUSH0 REVERT JUMPDEST POP PUSH1 0x4 CALLDATASIZE LT PUSH2 0x34 JUMPI PUSH0 CALLDATALOAD PUSH1 0xE0 SHR DUP1 PUSH4 0x7851CC06 EQ PUSH2 0x38 JUMPI DUP1 PUSH4 0x92DD427B EQ PUSH2 0x54 JUMPI JUMPDEST PUSH0 PUSH0 REVERT JUMPDEST PUSH2 0x52 PUSH1 0x4 DUP1 CALLDATASIZE SUB DUP2 ADD SWAP1 PUSH2 0x4D SWAP2 SWAP1 PUSH2 0x3D6 JUMP JUMPDEST PUSH2 0x72 JUMP JUMPDEST STOP JUMPDEST PUSH2 0x5C PUSH2 0x1FB JUMP JUMPDEST PUSH1 0x40 MLOAD PUSH2 0x69 SWAP2 SWAP1 PUSH2 0x484 JUMP JUMPDEST PUSH1 0x40 MLOAD DUP1 SWAP2 SUB SWAP1 RETURN JUMPDEST PUSH0 DUP3 PUSH1 0xFF AND LT ISZERO DUP1 ISZERO PUSH2 0x89 JUMPI POP PUSH1 0x1 DUP3 PUSH1 0xFF AND GT ISZERO JUMPDEST PUSH2 0xC8 JUMPI PUSH1 0x40 MLOAD PUSH32 0x8C379A000000000000000000000000000000000000000000000000000000000 DUP2 MSTORE PUSH1 0x4 ADD PUSH2 0xBF SWAP1 PUSH2 0x4EE JUMP JUMPDEST PUSH1 0x40 MLOAD DUP1 SWAP2 SUB SWAP1 REVERT JUMPDEST PUSH0 DUP3 PUSH1 0xFF AND PUSH1 0x1 DUP2 GT ISZERO PUSH2 0xDF JUMPI PUSH2 0xDE PUSH2 0x50C JUMP JUMPDEST JUMPDEST SWAP1 POP PUSH0 PUSH2 0xEB DUP3 PUSH2 0x286 JUMP JUMPDEST SWAP1 POP PUSH0 PUSH0 DUP5 PUSH20 0xFFFFFFFFFFFFFFFFFFFFFFFFFFFFFFFFFFFFFFFF AND DUP4 PUSH2 0xFFFF AND PUSH1 0x40 MLOAD PUSH2 0x117 SWAP1 PUSH2 0x566 JUMP JUMPDEST PUSH0 PUSH1 0x40 MLOAD DUP1 DUP4 SUB DUP2 DUP6 DUP8 GAS CALL SWAP3 POP POP POP RETURNDATASIZE DUP1 PUSH0 DUP2 EQ PUSH2 0x151 JUMPI PUSH1 0x40 MLOAD SWAP2 POP PUSH1 0x1F NOT PUSH1 0x3F RETURNDATASIZE ADD AND DUP3 ADD PUSH1 0x40 MSTORE RETURNDATASIZE DUP3 MSTORE RETURNDATASIZE PUSH0 PUSH1 0x20 DUP5 ADD RETURNDATACOPY PUSH2 0x156 JUMP JUMPDEST PUSH1 0x60 SWAP2 POP JUMPDEST POP SWAP2 POP SWAP2 POP DUP2 ISZERO PUSH2 0x19F JUMPI PUSH32 0x6C114F03096D92B098F0F087D8FD4A756D362D86A9649A07142404E7FD1D77B5 DUP6 DUP5 PUSH1 0x40 MLOAD PUSH2 0x192 SWAP3 SWAP2 SWAP1 PUSH2 0x5D8 JUMP JUMPDEST PUSH1 0x40 MLOAD DUP1 SWAP2 SUB SWAP1 LOG1 PUSH2 0x1F3 JUMP JUMPDEST PUSH0 DUP2 DUP1 PUSH1 0x20 ADD SWAP1 MLOAD DUP2 ADD SWAP1 PUSH2 0x1B4 SWAP2 SWAP1 PUSH2 0x71D JUMP JUMPDEST SWAP1 POP PUSH32 0xB50BAD9D607D2EEA3965C8F8D06B1656EE8D5977F65B49E355ADEBC65A6B86B4 DUP7 DUP6 DUP4 PUSH1 0x40 MLOAD PUSH2 0x1E9 SWAP4 SWAP3 SWAP2 SWAP1 PUSH2 0x764 JUMP JUMPDEST PUSH1 0x40 MLOAD DUP1 SWAP2 SUB SWAP1 LOG1 POP JUMPDEST POP POP POP POP POP POP JUMP JUMPDEST PUSH0 DUP1 SLOAD PUSH2 0x207 SWAP1 PUSH2 0x7CD JUMP JUMPDEST DUP1 PUSH1 0x1F ADD PUSH1 0x20 DUP1 SWAP2 DIV MUL PUSH1 0x20 ADD PUSH1 0x40 MLOAD SWAP1 DUP2 ADD PUSH1 0x40 MSTORE DUP1 SWAP3 SWAP2 SWAP1 DUP2 DUP2 MSTORE PUSH1 0x20 ADD DUP3 DUP1 SLOAD PUSH2 0x233 SWAP1 PUSH2 0x7CD JUMP JUMPDEST DUP1 ISZERO PUSH2 0x27E JUMPI DUP1 PUSH1 0x1F LT PUSH2 0x255 JUMPI PUSH2 0x100 DUP1 DUP4 SLOAD DIV MUL DUP4 MSTORE SWAP2 PUSH1 0x20 ADD SWAP2 PUSH2 0x27E JUMP JUMPDEST DUP3 ADD SWAP2 SWAP1 PUSH0 MSTORE PUSH1 0x20 PUSH0 KECCAK256 SWAP1 JUMPDEST DUP2 SLOAD DUP2 MSTORE SWAP1 PUSH1 0x1 ADD SWAP1 PUSH1 0x20 ADD DUP1 DUP4 GT PUSH2 0x261 JUMPI DUP3 SWAP1 SUB PUSH1 0x1F AND DUP3 ADD SWAP2 JUMPDEST POP POP POP POP POP DUP2 JUMP JUMPDEST PUSH0 PUSH0 PUSH0 PUSH1 0x1 DUP2 GT ISZERO PUSH2 0x29B JUMPI PUSH2 0x29A PUSH2 0x50C JUMP JUMPDEST JUMPDEST DUP4 PUSH1 0x1 DUP2 GT ISZERO PUSH2 0x2AE JUMPI PUSH2 0x2AD PUSH2 0x50C JUMP JUMPDEST JUMPDEST SUB PUSH2 0x2BC JUMPI PUSH1 0x1 SWAP1 POP PUSH2 0x32C JUMP JUMPDEST PUSH1 0x1 DUP1 DUP2 GT ISZERO PUSH2 0x2CF JUMPI PUSH2 0x2CE PUSH2 0x50C JUMP JUMPDEST JUMPDEST DUP4 PUSH1 0x1 DUP2 GT ISZERO PUSH2 0x2E2 JUMPI PUSH2 0x2E1 PUSH2 0x50C JUMP JUMPDEST JUMPDEST SUB PUSH2 0x2F0 JUMPI PUSH1 0x3 SWAP1 POP PUSH2 0x32B JUMP JUMPDEST PUSH1 0x40 MLOAD PUSH32 0x8C379A000000000000000000000000000000000000000000000000000000000 DUP2 MSTORE PUSH1 0x4 ADD PUSH2 0x322 SWAP1 PUSH2 0x847 JUMP JUMPDEST PUSH1 0x40 MLOAD DUP1 SWAP2 SUB SWAP1 REVERT JUMPDEST JUMPDEST DUP1 SWAP2 POP POP SWAP2 SWAP1 POP JUMP JUMPDEST PUSH0 PUSH1 0x40 MLOAD SWAP1 POP SWAP1 JUMP JUMPDEST PUSH0 PUSH0 REVERT JUMPDEST PUSH0 PUSH0 REVERT JUMPDEST PUSH0 PUSH1 0xFF DUP3 AND SWAP1 POP SWAP2 SWAP1 POP JUMP JUMPDEST PUSH2 0x35B DUP2 PUSH2 0x346 JUMP JUMPDEST DUP2 EQ PUSH2 0x365 JUMPI PUSH0 PUSH0 REVERT JUMPDEST POP JUMP JUMPDEST PUSH0 DUP2 CALLDATALOAD SWAP1 POP PUSH2 0x376 DUP2 PUSH2 0x352 JUMP JUMPDEST SWAP3 SWAP2 POP POP JUMP JUMPDEST PUSH0 PUSH20 0xFFFFFFFFFFFFFFFFFFFFFFFFFFFFFFFFFFFFFFFF DUP3 AND SWAP1 POP SWAP2 SWAP1 POP JUMP JUMPDEST PUSH0 PUSH2 0x3A5 DUP3 PUSH2 0x37C JUMP JUMPDEST SWAP1 POP SWAP2 SWAP1 POP JUMP JUMPDEST PUSH2 0x3B5 DUP2 PUSH2 0x39B JUMP JUMPDEST DUP2 EQ PUSH2 0x3BF JUMPI PUSH0 PUSH0 REVERT JUMPDEST POP JUMP JUMPDEST PUSH0 DUP2 CALLDATALOAD SWAP1 POP PUSH2 0x3D0 DUP2 PUSH2 0x3AC JUMP JUMPDEST SWAP3 SWAP2 POP POP JUMP JUMPDEST PUSH0 PUSH0 PUSH1 0x40 DUP4 DUP6 SUB SLT ISZERO PUSH2 0x3EC JUMPI PUSH2 0x3EB PUSH2 0x33E JUMP JUMPDEST JUMPDEST PUSH0 PUSH2 0x3F9 DUP6 DUP3 DUP7 ADD PUSH2 0x368 JUMP JUMPDEST SWAP3 POP POP PUSH1 0x20 PUSH2 0x40A DUP6 DUP3 DUP7 ADD PUSH2 0x3C2 JUMP JUMPDEST SWAP2 POP POP SWAP3 POP SWAP3 SWAP1 POP JUMP JUMPDEST PUSH0 DUP2 MLOAD SWAP1 POP SWAP2 SWAP1 POP JUMP JUMPDEST PUSH0 DUP3 DUP3 MSTORE PUSH1 0x20 DUP3 ADD SWAP1 POP SWAP3 SWAP2 POP POP JUMP JUMPDEST DUP3 DUP2 DUP4 MCOPY PUSH0 DUP4 DUP4 ADD MSTORE POP POP POP JUMP JUMPDEST PUSH0 PUSH1 0x1F NOT PUSH1 0x1F DUP4 ADD AND SWAP1 POP SWAP2 SWAP1 POP JUMP JUMPDEST PUSH0 PUSH2 0x456 DUP3 PUSH2 0x414 JUMP JUMPDEST PUSH2 0x460 DUP2 DUP6 PUSH2 0x41E JUMP JUMPDEST SWAP4 POP PUSH2 0x470 DUP2 DUP6 PUSH1 0x20 DUP7 ADD PUSH2 0x42E JUMP JUMPDEST PUSH2 0x479 DUP2 PUSH2 0x43C JUMP JUMPDEST DUP5 ADD SWAP2 POP POP SWAP3 SWAP2 POP POP JUMP JUMPDEST PUSH0 PUSH1 0x20 DUP3 ADD SWAP1 POP DUP2 DUP2 SUB PUSH0 DUP4 ADD MSTORE PUSH2 0x49C DUP2 DUP5 PUSH2 0x44C JUMP JUMPDEST SWAP1 POP SWAP3 SWAP2 POP POP JUMP JUMPDEST PUSH32 0x496E76616C696420757365722074696572210000000000000000000000000000 PUSH0 DUP3 ADD MSTORE POP JUMP JUMPDEST PUSH0 PUSH2 0x4D8 PUSH1 0x12 DUP4 PUSH2 0x41E JUMP JUMPDEST SWAP2 POP PUSH2 0x4E3 DUP3 PUSH2 0x4A4 JUMP JUMPDEST PUSH1 0x20 DUP3 ADD SWAP1 POP SWAP2 SWAP1 POP JUMP JUMPDEST PUSH0 PUSH1 0x20 DUP3 ADD SWAP1 POP DUP2 DUP2 SUB PUSH0 DUP4 ADD MSTORE PUSH2 0x505 DUP2 PUSH2 0x4CC JUMP JUMPDEST SWAP1 POP SWAP2 SWAP1 POP JUMP JUMPDEST PUSH32 0x4E487B7100000000000000000000000000000000000000000000000000000000 PUSH0 MSTORE PUSH1 0x21 PUSH1 0x4 MSTORE PUSH1 0x24 PUSH0 REVERT JUMPDEST PUSH0 DUP2 SWAP1 POP SWAP3 SWAP2 POP POP JUMP JUMPDEST POP JUMP JUMPDEST PUSH0 PUSH2 0x551 PUSH0 DUP4 PUSH2 0x539 JUMP JUMPDEST SWAP2 POP PUSH2 0x55C DUP3 PUSH2 0x543 JUMP JUMPDEST PUSH0 DUP3 ADD SWAP1 POP SWAP2 SWAP1 POP JUMP JUMPDEST PUSH0 PUSH2 0x570 DUP3 PUSH2 0x546 JUMP JUMPDEST SWAP2 POP DUP2 SWAP1 POP SWAP2 SWAP1 POP JUMP JUMPDEST PUSH2 0x583 DUP2 PUSH2 0x39B JUMP JUMPDEST DUP3 MSTORE POP POP JUMP JUMPDEST PUSH0 PUSH2 0xFFFF DUP3 AND SWAP1 POP SWAP2 SWAP1 POP JUMP JUMPDEST PUSH0 DUP2 SWAP1 POP SWAP2 SWAP1 POP JUMP JUMPDEST PUSH0 DUP2 SWAP1 POP SWAP2 SWAP1 POP JUMP JUMPDEST PUSH0 PUSH2 0x5C2 PUSH2 0x5BD PUSH2 0x5B8 DUP5 PUSH2 0x589 JUMP JUMPDEST PUSH2 0x59F JUMP JUMPDEST PUSH2 0x596 JUMP JUMPDEST SWAP1 POP SWAP2 SWAP1 POP JUMP JUMPDEST PUSH2 0x5D2 DUP2 PUSH2 0x5A8 JUMP JUMPDEST DUP3 MSTORE POP POP JUMP JUMPDEST PUSH0 PUSH1 0x40 DUP3 ADD SWAP1 POP PUSH2 0x5EB PUSH0 DUP4 ADD DUP6 PUSH2 0x57A JUMP JUMPDEST PUSH2 0x5F8 PUSH1 0x20 DUP4 ADD DUP5 PUSH2 0x5C9 JUMP JUMPDEST SWAP4 SWAP3 POP POP POP JUMP JUMPDEST PUSH0 PUSH0 REVERT JUMPDEST PUSH0 PUSH0 REVERT JUMPDEST PUSH32 0x4E487B7100000000000000000000000000000000000000000000000000000000 PUSH0 MSTORE PUSH1 0x41 PUSH1 0x4 MSTORE PUSH1 0x24 PUSH0 REVERT JUMPDEST PUSH2 0x63D DUP3 PUSH2 0x43C JUMP JUMPDEST DUP2 ADD DUP2 DUP2 LT PUSH8 0xFFFFFFFFFFFFFFFF DUP3 GT OR ISZERO PUSH2 0x65C JUMPI PUSH2 0x65B PUSH2 0x607 JUMP JUMPDEST JUMPDEST DUP1 PUSH1 0x40 MSTORE POP POP POP JUMP JUMPDEST PUSH0 PUSH2 0x66E PUSH2 0x335 JUMP JUMPDEST SWAP1 POP PUSH2 0x67A DUP3 DUP3 PUSH2 0x634 JUMP JUMPDEST SWAP2 SWAP1 POP JUMP JUMPDEST PUSH0 PUSH8 0xFFFFFFFFFFFFFFFF DUP3 GT ISZERO PUSH2 0x699 JUMPI PUSH2 0x698 PUSH2 0x607 JUMP JUMPDEST JUMPDEST PUSH2 0x6A2 DUP3 PUSH2 0x43C JUMP JUMPDEST SWAP1 POP PUSH1 0x20 DUP2 ADD SWAP1 POP SWAP2 SWAP1 POP JUMP JUMPDEST PUSH0 PUSH2 0x6C1 PUSH2 0x6BC DUP5 PUSH2 0x67F JUMP JUMPDEST PUSH2 0x665 JUMP JUMPDEST SWAP1 POP DUP3 DUP2 MSTORE PUSH1 0x20 DUP2 ADD DUP5 DUP5 DUP5 ADD GT ISZERO PUSH2 0x6DD JUMPI PUSH2 0x6DC PUSH2 0x603 JUMP JUMPDEST JUMPDEST PUSH2 0x6E8 DUP5 DUP3 DUP6 PUSH2 0x42E JUMP JUMPDEST POP SWAP4 SWAP3 POP POP POP JUMP JUMPDEST PUSH0 DUP3 PUSH1 0x1F DUP4 ADD SLT PUSH2 0x704 JUMPI PUSH2 0x703 PUSH2 0x5FF JUMP JUMPDEST JUMPDEST DUP2 MLOAD PUSH2 0x714 DUP5 DUP3 PUSH1 0x20 DUP7 ADD PUSH2 0x6AF JUMP JUMPDEST SWAP2 POP POP SWAP3 SWAP2 POP POP JUMP JUMPDEST PUSH0 PUSH1 0x20 DUP3 DUP5 SUB SLT ISZERO PUSH2 0x732 JUMPI PUSH2 0x731 PUSH2 0x33E JUMP JUMPDEST JUMPDEST PUSH0 DUP3 ADD MLOAD PUSH8 0xFFFFFFFFFFFFFFFF DUP2 GT ISZERO PUSH2 0x74F JUMPI PUSH2 0x74E PUSH2 0x342 JUMP JUMPDEST JUMPDEST PUSH2 0x75B DUP5 DUP3 DUP6 ADD PUSH2 0x6F0 JUMP JUMPDEST SWAP2 POP POP SWAP3 SWAP2 POP POP JUMP JUMPDEST PUSH0 PUSH1 0x60 DUP3 ADD SWAP1 POP PUSH2 0x777 PUSH0 DUP4 ADD DUP7 PUSH2 0x57A JUMP JUMPDEST PUSH2 0x784 PUSH1 0x20 DUP4 ADD DUP6 PUSH2 0x5C9 JUMP JUMPDEST DUP2 DUP2 SUB PUSH1 0x40 DUP4 ADD MSTORE PUSH2 0x796 DUP2 DUP5 PUSH2 0x44C JUMP JUMPDEST SWAP1 POP SWAP5 SWAP4 POP POP POP POP JUMP JUMPDEST PUSH32 0x4E487B7100000000000000000000000000000000000000000000000000000000 PUSH0 MSTORE PUSH1 0x22 PUSH1 0x4 MSTORE PUSH1 0x24 PUSH0 REVERT JUMPDEST PUSH0 PUSH1 0x2 DUP3 DIV SWAP1 POP PUSH1 0x1 DUP3 AND DUP1 PUSH2 0x7E4 JUMPI PUSH1 0x7F DUP3 AND SWAP2 POP JUMPDEST PUSH1 0x20 DUP3 LT DUP2 SUB PUSH2 0x7F7 JUMPI PUSH2 0x7F6 PUSH2 0x7A0 JUMP JUMPDEST JUMPDEST POP SWAP2 SWAP1 POP JUMP JUMPDEST PUSH32 0x496E76616C696420696E737572616E6365207469657221000000000000000000 PUSH0 DUP3 ADD MSTORE POP JUMP JUMPDEST PUSH0 PUSH2 0x831 PUSH1 0x17 DUP4 PUSH2 0x41E JUMP JUMPDEST SWAP2 POP PUSH2 0x83C DUP3 PUSH2 0x7FD JUMP JUMPDEST PUSH1 0x20 DUP3 ADD SWAP1 POP SWAP2 SWAP1 POP JUMP JUMPDEST PUSH0 PUSH1 0x20 DUP3 ADD SWAP1 POP DUP2 DUP2 SUB PUSH0 DUP4 ADD MSTORE PUSH2 0x85E DUP2 PUSH2 0x825 JUMP JUMPDEST SWAP1 POP SWAP2 SWAP1 POP JUMP INVALID LOG2 PUSH5 0x6970667358 0x22 SLT KECCAK256 SWAP9 0xD2 0xEB 0x4F 0xB6 0x29 0xB5 PUSH14 0x2A9B983111E76BCBD555298F3BF6 SWAP16 SMOD EQ SWAP13 0xE4 0xC5 TIMESTAMP BALANCE 0xA6 PUSH24 0x64736F6C634300081C003300000000000000000000000000 "
				},
				"gasEstimates": {
					"creation": {
						"codeDepositCost": "440600",
						"executionCost": "infinite",
						"totalCost": "infinite"
					},
					"external": {
						"initiatePayout(uint8,address)": "infinite",
						"lastReceivedMessage()": "infinite"
					},
					"internal": {
						"calculatePayout(enum FlightInsurance.InsuranceTier)": "infinite"
					}
				},
				"methodIdentifiers": {
					"initiatePayout(uint8,address)": "7851cc06",
					"lastReceivedMessage()": "92dd427b"
				}
			},
			"storageLayout": {
				"storage": [
					{
						"astId": 6,
						"contract": "contracts/FlightInsurance.sol:FlightInsurance",
						"label": "lastReceivedMessage",
						"offset": 0,
						"slot": "0",
						"type": "t_string_storage"
					}
				],
				"types": {
					"t_string_storage": {
						"encoding": "bytes",
						"label": "string",
						"numberOfBytes": "32"
					}
				}
			},
			"userdoc": {
				"kind": "user",
				"methods": {},
				"version": 1
			}
		}
	}
}