{
	"data": {
		"bytecode": {
			"linkReferences": {},
			"object": "6080604052604051610cd0380380610cd083398181016040528101906100259190610177565b5f73ffffffffffffffffffffffffffffffffffffffff168273ffffffffffffffffffffffffffffffffffffffff1603610093576040517f08c379a000000000000000000000000000000000000000000000000000000000815260040161008a9061020f565b60405180910390fd5b8160025f6101000a81548173ffffffffffffffffffffffffffffffffffffffff021916908373ffffffffffffffffffffffffffffffffffffffff160217905550805f5f6101000a81548173ffffffffffffffffffffffffffffffffffffffff021916908373ffffffffffffffffffffffffffffffffffffffff160217905550505061022d565b5f5ffd5b5f73ffffffffffffffffffffffffffffffffffffffff82169050919050565b5f6101468261011d565b9050919050565b6101568161013c565b8114610160575f5ffd5b50565b5f815190506101718161014d565b92915050565b5f5f6040838503121561018d5761018c610119565b5b5f61019a85828601610163565b92505060206101ab85828601610163565b9150509250929050565b5f82825260208201905092915050565b7f496e76616c69642073656e64696e672077616c6c6574210000000000000000005f82015250565b5f6101f96017836101b5565b9150610204826101c5565b602082019050919050565b5f6020820190508181035f830152610226816101ed565b9050919050565b610a968061023a5f395ff3fe608060405260043610610037575f3560e01c80637851cc061461007957806392dd427b146100a1578063cbc07ecc146100cb57610075565b36610075577fcdc77e761b1d4cd82eeada7665c48ca477ac1c6bc761f8d5a191a6a37f8869db3460405161006b91906104dc565b60405180910390a1005b5f5ffd5b348015610084575f5ffd5b5061009f600480360381019061009a9190610589565b6100f3565b005b3480156100ac575f5ffd5b506100b56102aa565b6040516100c29190610637565b60405180910390f35b3480156100d6575f5ffd5b506100f160048036038101906100ec9190610681565b610336565b005b5f8260ff161015801561010a575060018260ff1611155b610149576040517f08c379a0000000000000000000000000000000000000000000000000000000008152600401610140906106f6565b60405180910390fd5b5f8260ff1660018111156101605761015f610714565b5b90505f61016c82610415565b90505f5f5f9054906101000a900473ffffffffffffffffffffffffffffffffffffffff1673ffffffffffffffffffffffffffffffffffffffff166323b872dd3086670de0b6b3a76400008661ffff166101c59190610781565b6040518463ffffffff1660e01b81526004016101e393929190610805565b6020604051808303815f875af11580156101ff573d5f5f3e3d5ffd5b505050506040513d601f19601f82011682018060405250810190610223919061086f565b90508015610269577f6c114f03096d92b098f0f087d8fd4a756d362d86a9649a07142404e7fd1d77b5848360405161025c9291906108d7565b60405180910390a16102a3565b7fe3e92735f0a5e1ddad0b68fe8526d646a42b4833010773101b7a3aa7e5ec62f0848360405161029a9291906108d7565b60405180910390a15b5050505050565b600180546102b79061092b565b80601f01602080910402602001604051908101604052809291908181526020018280546102e39061092b565b801561032e5780601f106103055761010080835404028352916020019161032e565b820191905f5260205f20905b81548152906001019060200180831161031157829003601f168201915b505050505081565b5f5f9054906101000a900473ffffffffffffffffffffffffffffffffffffffff1673ffffffffffffffffffffffffffffffffffffffff166323b872dd3330846040518463ffffffff1660e01b81526004016103939392919061095b565b6020604051808303815f875af11580156103af573d5f5f3e3d5ffd5b505050506040513d601f19601f820116820180604052508101906103d3919061086f565b610412576040517f08c379a0000000000000000000000000000000000000000000000000000000008152600401610409906109da565b60405180910390fd5b50565b5f5f5f600181111561042a57610429610714565b5b83600181111561043d5761043c610714565b5b0361044b57600190506104bb565b60018081111561045e5761045d610714565b5b83600181111561047157610470610714565b5b0361047f57600390506104ba565b6040517f08c379a00000000000000000000000000000000000000000000000000000000081526004016104b190610a42565b60405180910390fd5b5b80915050919050565b5f819050919050565b6104d6816104c4565b82525050565b5f6020820190506104ef5f8301846104cd565b92915050565b5f5ffd5b5f60ff82169050919050565b61050e816104f9565b8114610518575f5ffd5b50565b5f8135905061052981610505565b92915050565b5f73ffffffffffffffffffffffffffffffffffffffff82169050919050565b5f6105588261052f565b9050919050565b6105688161054e565b8114610572575f5ffd5b50565b5f813590506105838161055f565b92915050565b5f5f6040838503121561059f5761059e6104f5565b5b5f6105ac8582860161051b565b92505060206105bd85828601610575565b9150509250929050565b5f81519050919050565b5f82825260208201905092915050565b8281835e5f83830152505050565b5f601f19601f8301169050919050565b5f610609826105c7565b61061381856105d1565b93506106238185602086016105e1565b61062c816105ef565b840191505092915050565b5f6020820190508181035f83015261064f81846105ff565b905092915050565b610660816104c4565b811461066a575f5ffd5b50565b5f8135905061067b81610657565b92915050565b5f60208284031215610696576106956104f5565b5b5f6106a38482850161066d565b91505092915050565b7f496e76616c6964207573657220746965722100000000000000000000000000005f82015250565b5f6106e06012836105d1565b91506106eb826106ac565b602082019050919050565b5f6020820190508181035f83015261070d816106d4565b9050919050565b7f4e487b71000000000000000000000000000000000000000000000000000000005f52602160045260245ffd5b5f67ffffffffffffffff82169050919050565b7f4e487b71000000000000000000000000000000000000000000000000000000005f52601160045260245ffd5b5f61078b82610741565b915061079683610741565b92508282026107a481610741565b91508082146107b6576107b5610754565b5b5092915050565b6107c68161054e565b82525050565b5f819050919050565b5f6107ef6107ea6107e584610741565b6107cc565b6104c4565b9050919050565b6107ff816107d5565b82525050565b5f6060820190506108185f8301866107bd565b61082560208301856107bd565b61083260408301846107f6565b949350505050565b5f8115159050919050565b61084e8161083a565b8114610858575f5ffd5b50565b5f8151905061086981610845565b92915050565b5f60208284031215610884576108836104f5565b5b5f6108918482850161085b565b91505092915050565b5f61ffff82169050919050565b5f6108c16108bc6108b78461089a565b6107cc565b6104c4565b9050919050565b6108d1816108a7565b82525050565b5f6040820190506108ea5f8301856107bd565b6108f760208301846108c8565b9392505050565b7f4e487b71000000000000000000000000000000000000000000000000000000005f52602260045260245ffd5b5f600282049050600182168061094257607f821691505b602082108103610955576109546108fe565b5b50919050565b5f60608201905061096e5f8301866107bd565b61097b60208301856107bd565b61098860408301846104cd565b949350505050565b7f5472616e73666572206661696c656400000000000000000000000000000000005f82015250565b5f6109c4600f836105d1565b91506109cf82610990565b602082019050919050565b5f6020820190508181035f8301526109f1816109b8565b9050919050565b7f496e76616c696420696e737572616e63652074696572210000000000000000005f82015250565b5f610a2c6017836105d1565b9150610a37826109f8565b602082019050919050565b5f6020820190508181035f830152610a5981610a20565b905091905056fea2646970667358221220e5e298e2173b42050d13c6f50f7599271484a054f3c891c007320914f8efc94064736f6c634300081c0033",
			"opcodes": "PUSH1 0x80 PUSH1 0x40 MSTORE PUSH1 0x40 MLOAD PUSH2 0xCD0 CODESIZE SUB DUP1 PUSH2 0xCD0 DUP4 CODECOPY DUP2 DUP2 ADD PUSH1 0x40 MSTORE DUP2 ADD SWAP1 PUSH2 0x25 SWAP2 SWAP1 PUSH2 0x177 JUMP JUMPDEST PUSH0 PUSH20 0xFFFFFFFFFFFFFFFFFFFFFFFFFFFFFFFFFFFFFFFF AND DUP3 PUSH20 0xFFFFFFFFFFFFFFFFFFFFFFFFFFFFFFFFFFFFFFFF AND SUB PUSH2 0x93 JUMPI PUSH1 0x40 MLOAD PUSH32 0x8C379A000000000000000000000000000000000000000000000000000000000 DUP2 MSTORE PUSH1 0x4 ADD PUSH2 0x8A SWAP1 PUSH2 0x20F JUMP JUMPDEST PUSH1 0x40 MLOAD DUP1 SWAP2 SUB SWAP1 REVERT JUMPDEST DUP2 PUSH1 0x2 PUSH0 PUSH2 0x100 EXP DUP2 SLOAD DUP2 PUSH20 0xFFFFFFFFFFFFFFFFFFFFFFFFFFFFFFFFFFFFFFFF MUL NOT AND SWAP1 DUP4 PUSH20 0xFFFFFFFFFFFFFFFFFFFFFFFFFFFFFFFFFFFFFFFF AND MUL OR SWAP1 SSTORE POP DUP1 PUSH0 PUSH0 PUSH2 0x100 EXP DUP2 SLOAD DUP2 PUSH20 0xFFFFFFFFFFFFFFFFFFFFFFFFFFFFFFFFFFFFFFFF MUL NOT AND SWAP1 DUP4 PUSH20 0xFFFFFFFFFFFFFFFFFFFFFFFFFFFFFFFFFFFFFFFF AND MUL OR SWAP1 SSTORE POP POP POP PUSH2 0x22D JUMP JUMPDEST PUSH0 PUSH0 REVERT JUMPDEST PUSH0 PUSH20 0xFFFFFFFFFFFFFFFFFFFFFFFFFFFFFFFFFFFFFFFF DUP3 AND SWAP1 POP SWAP2 SWAP1 POP JUMP JUMPDEST PUSH0 PUSH2 0x146 DUP3 PUSH2 0x11D JUMP JUMPDEST SWAP1 POP SWAP2 SWAP1 POP JUMP JUMPDEST PUSH2 0x156 DUP2 PUSH2 0x13C JUMP JUMPDEST DUP2 EQ PUSH2 0x160 JUMPI PUSH0 PUSH0 REVERT JUMPDEST POP JUMP JUMPDEST PUSH0 DUP2 MLOAD SWAP1 POP PUSH2 0x171 DUP2 PUSH2 0x14D JUMP JUMPDEST SWAP3 SWAP2 POP POP JUMP JUMPDEST PUSH0 PUSH0 PUSH1 0x40 DUP4 DUP6 SUB SLT ISZERO PUSH2 0x18D JUMPI PUSH2 0x18C PUSH2 0x119 JUMP JUMPDEST JUMPDEST PUSH0 PUSH2 0x19A DUP6 DUP3 DUP7 ADD PUSH2 0x163 JUMP JUMPDEST SWAP3 POP POP PUSH1 0x20 PUSH2 0x1AB DUP6 DUP3 DUP7 ADD PUSH2 0x163 JUMP JUMPDEST SWAP2 POP POP SWAP3 POP SWAP3 SWAP1 POP JUMP JUMPDEST PUSH0 DUP3 DUP3 MSTORE PUSH1 0x20 DUP3 ADD SWAP1 POP SWAP3 SWAP2 POP POP JUMP JUMPDEST PUSH32 0x496E76616C69642073656E64696E672077616C6C657421000000000000000000 PUSH0 DUP3 ADD MSTORE POP JUMP JUMPDEST PUSH0 PUSH2 0x1F9 PUSH1 0x17 DUP4 PUSH2 0x1B5 JUMP JUMPDEST SWAP2 POP PUSH2 0x204 DUP3 PUSH2 0x1C5 JUMP JUMPDEST PUSH1 0x20 DUP3 ADD SWAP1 POP SWAP2 SWAP1 POP JUMP JUMPDEST PUSH0 PUSH1 0x20 DUP3 ADD SWAP1 POP DUP2 DUP2 SUB PUSH0 DUP4 ADD MSTORE PUSH2 0x226 DUP2 PUSH2 0x1ED JUMP JUMPDEST SWAP1 POP SWAP2 SWAP1 POP JUMP JUMPDEST PUSH2 0xA96 DUP1 PUSH2 0x23A PUSH0 CODECOPY PUSH0 RETURN INVALID PUSH1 0x80 PUSH1 0x40 MSTORE PUSH1 0x4 CALLDATASIZE LT PUSH2 0x37 JUMPI PUSH0 CALLDATALOAD PUSH1 0xE0 SHR DUP1 PUSH4 0x7851CC06 EQ PUSH2 0x79 JUMPI DUP1 PUSH4 0x92DD427B EQ PUSH2 0xA1 JUMPI DUP1 PUSH4 0xCBC07ECC EQ PUSH2 0xCB JUMPI PUSH2 0x75 JUMP JUMPDEST CALLDATASIZE PUSH2 0x75 JUMPI PUSH32 0xCDC77E761B1D4CD82EEADA7665C48CA477AC1C6BC761F8D5A191A6A37F8869DB CALLVALUE PUSH1 0x40 MLOAD PUSH2 0x6B SWAP2 SWAP1 PUSH2 0x4DC JUMP JUMPDEST PUSH1 0x40 MLOAD DUP1 SWAP2 SUB SWAP1 LOG1 STOP JUMPDEST PUSH0 PUSH0 REVERT JUMPDEST CALLVALUE DUP1 ISZERO PUSH2 0x84 JUMPI PUSH0 PUSH0 REVERT JUMPDEST POP PUSH2 0x9F PUSH1 0x4 DUP1 CALLDATASIZE SUB DUP2 ADD SWAP1 PUSH2 0x9A SWAP2 SWAP1 PUSH2 0x589 JUMP JUMPDEST PUSH2 0xF3 JUMP JUMPDEST STOP JUMPDEST CALLVALUE DUP1 ISZERO PUSH2 0xAC JUMPI PUSH0 PUSH0 REVERT JUMPDEST POP PUSH2 0xB5 PUSH2 0x2AA JUMP JUMPDEST PUSH1 0x40 MLOAD PUSH2 0xC2 SWAP2 SWAP1 PUSH2 0x637 JUMP JUMPDEST PUSH1 0x40 MLOAD DUP1 SWAP2 SUB SWAP1 RETURN JUMPDEST CALLVALUE DUP1 ISZERO PUSH2 0xD6 JUMPI PUSH0 PUSH0 REVERT JUMPDEST POP PUSH2 0xF1 PUSH1 0x4 DUP1 CALLDATASIZE SUB DUP2 ADD SWAP1 PUSH2 0xEC SWAP2 SWAP1 PUSH2 0x681 JUMP JUMPDEST PUSH2 0x336 JUMP JUMPDEST STOP JUMPDEST PUSH0 DUP3 PUSH1 0xFF AND LT ISZERO DUP1 ISZERO PUSH2 0x10A JUMPI POP PUSH1 0x1 DUP3 PUSH1 0xFF AND GT ISZERO JUMPDEST PUSH2 0x149 JUMPI PUSH1 0x40 MLOAD PUSH32 0x8C379A000000000000000000000000000000000000000000000000000000000 DUP2 MSTORE PUSH1 0x4 ADD PUSH2 0x140 SWAP1 PUSH2 0x6F6 JUMP JUMPDEST PUSH1 0x40 MLOAD DUP1 SWAP2 SUB SWAP1 REVERT JUMPDEST PUSH0 DUP3 PUSH1 0xFF AND PUSH1 0x1 DUP2 GT ISZERO PUSH2 0x160 JUMPI PUSH2 0x15F PUSH2 0x714 JUMP JUMPDEST JUMPDEST SWAP1 POP PUSH0 PUSH2 0x16C DUP3 PUSH2 0x415 JUMP JUMPDEST SWAP1 POP PUSH0 PUSH0 PUSH0 SWAP1 SLOAD SWAP1 PUSH2 0x100 EXP SWAP1 DIV PUSH20 0xFFFFFFFFFFFFFFFFFFFFFFFFFFFFFFFFFFFFFFFF AND PUSH20 0xFFFFFFFFFFFFFFFFFFFFFFFFFFFFFFFFFFFFFFFF AND PUSH4 0x23B872DD ADDRESS DUP7 PUSH8 0xDE0B6B3A7640000 DUP7 PUSH2 0xFFFF AND PUSH2 0x1C5 SWAP2 SWAP1 PUSH2 0x781 JUMP JUMPDEST PUSH1 0x40 MLOAD DUP5 PUSH4 0xFFFFFFFF AND PUSH1 0xE0 SHL DUP2 MSTORE PUSH1 0x4 ADD PUSH2 0x1E3 SWAP4 SWAP3 SWAP2 SWAP1 PUSH2 0x805 JUMP JUMPDEST PUSH1 0x20 PUSH1 0x40 MLOAD DUP1 DUP4 SUB DUP2 PUSH0 DUP8 GAS CALL ISZERO DUP1 ISZERO PUSH2 0x1FF JUMPI RETURNDATASIZE PUSH0 PUSH0 RETURNDATACOPY RETURNDATASIZE PUSH0 REVERT JUMPDEST POP POP POP POP PUSH1 0x40 MLOAD RETURNDATASIZE PUSH1 0x1F NOT PUSH1 0x1F DUP3 ADD AND DUP3 ADD DUP1 PUSH1 0x40 MSTORE POP DUP2 ADD SWAP1 PUSH2 0x223 SWAP2 SWAP1 PUSH2 0x86F JUMP JUMPDEST SWAP1 POP DUP1 ISZERO PUSH2 0x269 JUMPI PUSH32 0x6C114F03096D92B098F0F087D8FD4A756D362D86A9649A07142404E7FD1D77B5 DUP5 DUP4 PUSH1 0x40 MLOAD PUSH2 0x25C SWAP3 SWAP2 SWAP1 PUSH2 0x8D7 JUMP JUMPDEST PUSH1 0x40 MLOAD DUP1 SWAP2 SUB SWAP1 LOG1 PUSH2 0x2A3 JUMP JUMPDEST PUSH32 0xE3E92735F0A5E1DDAD0B68FE8526D646A42B4833010773101B7A3AA7E5EC62F0 DUP5 DUP4 PUSH1 0x40 MLOAD PUSH2 0x29A SWAP3 SWAP2 SWAP1 PUSH2 0x8D7 JUMP JUMPDEST PUSH1 0x40 MLOAD DUP1 SWAP2 SUB SWAP1 LOG1 JUMPDEST POP POP POP POP POP JUMP JUMPDEST PUSH1 0x1 DUP1 SLOAD PUSH2 0x2B7 SWAP1 PUSH2 0x92B JUMP JUMPDEST DUP1 PUSH1 0x1F ADD PUSH1 0x20 DUP1 SWAP2 DIV MUL PUSH1 0x20 ADD PUSH1 0x40 MLOAD SWAP1 DUP2 ADD PUSH1 0x40 MSTORE DUP1 SWAP3 SWAP2 SWAP1 DUP2 DUP2 MSTORE PUSH1 0x20 ADD DUP3 DUP1 SLOAD PUSH2 0x2E3 SWAP1 PUSH2 0x92B JUMP JUMPDEST DUP1 ISZERO PUSH2 0x32E JUMPI DUP1 PUSH1 0x1F LT PUSH2 0x305 JUMPI PUSH2 0x100 DUP1 DUP4 SLOAD DIV MUL DUP4 MSTORE SWAP2 PUSH1 0x20 ADD SWAP2 PUSH2 0x32E JUMP JUMPDEST DUP3 ADD SWAP2 SWAP1 PUSH0 MSTORE PUSH1 0x20 PUSH0 KECCAK256 SWAP1 JUMPDEST DUP2 SLOAD DUP2 MSTORE SWAP1 PUSH1 0x1 ADD SWAP1 PUSH1 0x20 ADD DUP1 DUP4 GT PUSH2 0x311 JUMPI DUP3 SWAP1 SUB PUSH1 0x1F AND DUP3 ADD SWAP2 JUMPDEST POP POP POP POP POP DUP2 JUMP JUMPDEST PUSH0 PUSH0 SWAP1 SLOAD SWAP1 PUSH2 0x100 EXP SWAP1 DIV PUSH20 0xFFFFFFFFFFFFFFFFFFFFFFFFFFFFFFFFFFFFFFFF AND PUSH20 0xFFFFFFFFFFFFFFFFFFFFFFFFFFFFFFFFFFFFFFFF AND PUSH4 0x23B872DD CALLER ADDRESS DUP5 PUSH1 0x40 MLOAD DUP5 PUSH4 0xFFFFFFFF AND PUSH1 0xE0 SHL DUP2 MSTORE PUSH1 0x4 ADD PUSH2 0x393 SWAP4 SWAP3 SWAP2 SWAP1 PUSH2 0x95B JUMP JUMPDEST PUSH1 0x20 PUSH1 0x40 MLOAD DUP1 DUP4 SUB DUP2 PUSH0 DUP8 GAS CALL ISZERO DUP1 ISZERO PUSH2 0x3AF JUMPI RETURNDATASIZE PUSH0 PUSH0 RETURNDATACOPY RETURNDATASIZE PUSH0 REVERT JUMPDEST POP POP POP POP PUSH1 0x40 MLOAD RETURNDATASIZE PUSH1 0x1F NOT PUSH1 0x1F DUP3 ADD AND DUP3 ADD DUP1 PUSH1 0x40 MSTORE POP DUP2 ADD SWAP1 PUSH2 0x3D3 SWAP2 SWAP1 PUSH2 0x86F JUMP JUMPDEST PUSH2 0x412 JUMPI PUSH1 0x40 MLOAD PUSH32 0x8C379A000000000000000000000000000000000000000000000000000000000 DUP2 MSTORE PUSH1 0x4 ADD PUSH2 0x409 SWAP1 PUSH2 0x9DA JUMP JUMPDEST PUSH1 0x40 MLOAD DUP1 SWAP2 SUB SWAP1 REVERT JUMPDEST POP JUMP JUMPDEST PUSH0 PUSH0 PUSH0 PUSH1 0x1 DUP2 GT ISZERO PUSH2 0x42A JUMPI PUSH2 0x429 PUSH2 0x714 JUMP JUMPDEST JUMPDEST DUP4 PUSH1 0x1 DUP2 GT ISZERO PUSH2 0x43D JUMPI PUSH2 0x43C PUSH2 0x714 JUMP JUMPDEST JUMPDEST SUB PUSH2 0x44B JUMPI PUSH1 0x1 SWAP1 POP PUSH2 0x4BB JUMP JUMPDEST PUSH1 0x1 DUP1 DUP2 GT ISZERO PUSH2 0x45E JUMPI PUSH2 0x45D PUSH2 0x714 JUMP JUMPDEST JUMPDEST DUP4 PUSH1 0x1 DUP2 GT ISZERO PUSH2 0x471 JUMPI PUSH2 0x470 PUSH2 0x714 JUMP JUMPDEST JUMPDEST SUB PUSH2 0x47F JUMPI PUSH1 0x3 SWAP1 POP PUSH2 0x4BA JUMP JUMPDEST PUSH1 0x40 MLOAD PUSH32 0x8C379A000000000000000000000000000000000000000000000000000000000 DUP2 MSTORE PUSH1 0x4 ADD PUSH2 0x4B1 SWAP1 PUSH2 0xA42 JUMP JUMPDEST PUSH1 0x40 MLOAD DUP1 SWAP2 SUB SWAP1 REVERT JUMPDEST JUMPDEST DUP1 SWAP2 POP POP SWAP2 SWAP1 POP JUMP JUMPDEST PUSH0 DUP2 SWAP1 POP SWAP2 SWAP1 POP JUMP JUMPDEST PUSH2 0x4D6 DUP2 PUSH2 0x4C4 JUMP JUMPDEST DUP3 MSTORE POP POP JUMP JUMPDEST PUSH0 PUSH1 0x20 DUP3 ADD SWAP1 POP PUSH2 0x4EF PUSH0 DUP4 ADD DUP5 PUSH2 0x4CD JUMP JUMPDEST SWAP3 SWAP2 POP POP JUMP JUMPDEST PUSH0 PUSH0 REVERT JUMPDEST PUSH0 PUSH1 0xFF DUP3 AND SWAP1 POP SWAP2 SWAP1 POP JUMP JUMPDEST PUSH2 0x50E DUP2 PUSH2 0x4F9 JUMP JUMPDEST DUP2 EQ PUSH2 0x518 JUMPI PUSH0 PUSH0 REVERT JUMPDEST POP JUMP JUMPDEST PUSH0 DUP2 CALLDATALOAD SWAP1 POP PUSH2 0x529 DUP2 PUSH2 0x505 JUMP JUMPDEST SWAP3 SWAP2 POP POP JUMP JUMPDEST PUSH0 PUSH20 0xFFFFFFFFFFFFFFFFFFFFFFFFFFFFFFFFFFFFFFFF DUP3 AND SWAP1 POP SWAP2 SWAP1 POP JUMP JUMPDEST PUSH0 PUSH2 0x558 DUP3 PUSH2 0x52F JUMP JUMPDEST SWAP1 POP SWAP2 SWAP1 POP JUMP JUMPDEST PUSH2 0x568 DUP2 PUSH2 0x54E JUMP JUMPDEST DUP2 EQ PUSH2 0x572 JUMPI PUSH0 PUSH0 REVERT JUMPDEST POP JUMP JUMPDEST PUSH0 DUP2 CALLDATALOAD SWAP1 POP PUSH2 0x583 DUP2 PUSH2 0x55F JUMP JUMPDEST SWAP3 SWAP2 POP POP JUMP JUMPDEST PUSH0 PUSH0 PUSH1 0x40 DUP4 DUP6 SUB SLT ISZERO PUSH2 0x59F JUMPI PUSH2 0x59E PUSH2 0x4F5 JUMP JUMPDEST JUMPDEST PUSH0 PUSH2 0x5AC DUP6 DUP3 DUP7 ADD PUSH2 0x51B JUMP JUMPDEST SWAP3 POP POP PUSH1 0x20 PUSH2 0x5BD DUP6 DUP3 DUP7 ADD PUSH2 0x575 JUMP JUMPDEST SWAP2 POP POP SWAP3 POP SWAP3 SWAP1 POP JUMP JUMPDEST PUSH0 DUP2 MLOAD SWAP1 POP SWAP2 SWAP1 POP JUMP JUMPDEST PUSH0 DUP3 DUP3 MSTORE PUSH1 0x20 DUP3 ADD SWAP1 POP SWAP3 SWAP2 POP POP JUMP JUMPDEST DUP3 DUP2 DUP4 MCOPY PUSH0 DUP4 DUP4 ADD MSTORE POP POP POP JUMP JUMPDEST PUSH0 PUSH1 0x1F NOT PUSH1 0x1F DUP4 ADD AND SWAP1 POP SWAP2 SWAP1 POP JUMP JUMPDEST PUSH0 PUSH2 0x609 DUP3 PUSH2 0x5C7 JUMP JUMPDEST PUSH2 0x613 DUP2 DUP6 PUSH2 0x5D1 JUMP JUMPDEST SWAP4 POP PUSH2 0x623 DUP2 DUP6 PUSH1 0x20 DUP7 ADD PUSH2 0x5E1 JUMP JUMPDEST PUSH2 0x62C DUP2 PUSH2 0x5EF JUMP JUMPDEST DUP5 ADD SWAP2 POP POP SWAP3 SWAP2 POP POP JUMP JUMPDEST PUSH0 PUSH1 0x20 DUP3 ADD SWAP1 POP DUP2 DUP2 SUB PUSH0 DUP4 ADD MSTORE PUSH2 0x64F DUP2 DUP5 PUSH2 0x5FF JUMP JUMPDEST SWAP1 POP SWAP3 SWAP2 POP POP JUMP JUMPDEST PUSH2 0x660 DUP2 PUSH2 0x4C4 JUMP JUMPDEST DUP2 EQ PUSH2 0x66A JUMPI PUSH0 PUSH0 REVERT JUMPDEST POP JUMP JUMPDEST PUSH0 DUP2 CALLDATALOAD SWAP1 POP PUSH2 0x67B DUP2 PUSH2 0x657 JUMP JUMPDEST SWAP3 SWAP2 POP POP JUMP JUMPDEST PUSH0 PUSH1 0x20 DUP3 DUP5 SUB SLT ISZERO PUSH2 0x696 JUMPI PUSH2 0x695 PUSH2 0x4F5 JUMP JUMPDEST JUMPDEST PUSH0 PUSH2 0x6A3 DUP5 DUP3 DUP6 ADD PUSH2 0x66D JUMP JUMPDEST SWAP2 POP POP SWAP3 SWAP2 POP POP JUMP JUMPDEST PUSH32 0x496E76616C696420757365722074696572210000000000000000000000000000 PUSH0 DUP3 ADD MSTORE POP JUMP JUMPDEST PUSH0 PUSH2 0x6E0 PUSH1 0x12 DUP4 PUSH2 0x5D1 JUMP JUMPDEST SWAP2 POP PUSH2 0x6EB DUP3 PUSH2 0x6AC JUMP JUMPDEST PUSH1 0x20 DUP3 ADD SWAP1 POP SWAP2 SWAP1 POP JUMP JUMPDEST PUSH0 PUSH1 0x20 DUP3 ADD SWAP1 POP DUP2 DUP2 SUB PUSH0 DUP4 ADD MSTORE PUSH2 0x70D DUP2 PUSH2 0x6D4 JUMP JUMPDEST SWAP1 POP SWAP2 SWAP1 POP JUMP JUMPDEST PUSH32 0x4E487B7100000000000000000000000000000000000000000000000000000000 PUSH0 MSTORE PUSH1 0x21 PUSH1 0x4 MSTORE PUSH1 0x24 PUSH0 REVERT JUMPDEST PUSH0 PUSH8 0xFFFFFFFFFFFFFFFF DUP3 AND SWAP1 POP SWAP2 SWAP1 POP JUMP JUMPDEST PUSH32 0x4E487B7100000000000000000000000000000000000000000000000000000000 PUSH0 MSTORE PUSH1 0x11 PUSH1 0x4 MSTORE PUSH1 0x24 PUSH0 REVERT JUMPDEST PUSH0 PUSH2 0x78B DUP3 PUSH2 0x741 JUMP JUMPDEST SWAP2 POP PUSH2 0x796 DUP4 PUSH2 0x741 JUMP JUMPDEST SWAP3 POP DUP3 DUP3 MUL PUSH2 0x7A4 DUP2 PUSH2 0x741 JUMP JUMPDEST SWAP2 POP DUP1 DUP3 EQ PUSH2 0x7B6 JUMPI PUSH2 0x7B5 PUSH2 0x754 JUMP JUMPDEST JUMPDEST POP SWAP3 SWAP2 POP POP JUMP JUMPDEST PUSH2 0x7C6 DUP2 PUSH2 0x54E JUMP JUMPDEST DUP3 MSTORE POP POP JUMP JUMPDEST PUSH0 DUP2 SWAP1 POP SWAP2 SWAP1 POP JUMP JUMPDEST PUSH0 PUSH2 0x7EF PUSH2 0x7EA PUSH2 0x7E5 DUP5 PUSH2 0x741 JUMP JUMPDEST PUSH2 0x7CC JUMP JUMPDEST PUSH2 0x4C4 JUMP JUMPDEST SWAP1 POP SWAP2 SWAP1 POP JUMP JUMPDEST PUSH2 0x7FF DUP2 PUSH2 0x7D5 JUMP JUMPDEST DUP3 MSTORE POP POP JUMP JUMPDEST PUSH0 PUSH1 0x60 DUP3 ADD SWAP1 POP PUSH2 0x818 PUSH0 DUP4 ADD DUP7 PUSH2 0x7BD JUMP JUMPDEST PUSH2 0x825 PUSH1 0x20 DUP4 ADD DUP6 PUSH2 0x7BD JUMP JUMPDEST PUSH2 0x832 PUSH1 0x40 DUP4 ADD DUP5 PUSH2 0x7F6 JUMP JUMPDEST SWAP5 SWAP4 POP POP POP POP JUMP JUMPDEST PUSH0 DUP2 ISZERO ISZERO SWAP1 POP SWAP2 SWAP1 POP JUMP JUMPDEST PUSH2 0x84E DUP2 PUSH2 0x83A JUMP JUMPDEST DUP2 EQ PUSH2 0x858 JUMPI PUSH0 PUSH0 REVERT JUMPDEST POP JUMP JUMPDEST PUSH0 DUP2 MLOAD SWAP1 POP PUSH2 0x869 DUP2 PUSH2 0x845 JUMP JUMPDEST SWAP3 SWAP2 POP POP JUMP JUMPDEST PUSH0 PUSH1 0x20 DUP3 DUP5 SUB SLT ISZERO PUSH2 0x884 JUMPI PUSH2 0x883 PUSH2 0x4F5 JUMP JUMPDEST JUMPDEST PUSH0 PUSH2 0x891 DUP5 DUP3 DUP6 ADD PUSH2 0x85B JUMP JUMPDEST SWAP2 POP POP SWAP3 SWAP2 POP POP JUMP JUMPDEST PUSH0 PUSH2 0xFFFF DUP3 AND SWAP1 POP SWAP2 SWAP1 POP JUMP JUMPDEST PUSH0 PUSH2 0x8C1 PUSH2 0x8BC PUSH2 0x8B7 DUP5 PUSH2 0x89A JUMP JUMPDEST PUSH2 0x7CC JUMP JUMPDEST PUSH2 0x4C4 JUMP JUMPDEST SWAP1 POP SWAP2 SWAP1 POP JUMP JUMPDEST PUSH2 0x8D1 DUP2 PUSH2 0x8A7 JUMP JUMPDEST DUP3 MSTORE POP POP JUMP JUMPDEST PUSH0 PUSH1 0x40 DUP3 ADD SWAP1 POP PUSH2 0x8EA PUSH0 DUP4 ADD DUP6 PUSH2 0x7BD JUMP JUMPDEST PUSH2 0x8F7 PUSH1 0x20 DUP4 ADD DUP5 PUSH2 0x8C8 JUMP JUMPDEST SWAP4 SWAP3 POP POP POP JUMP JUMPDEST PUSH32 0x4E487B7100000000000000000000000000000000000000000000000000000000 PUSH0 MSTORE PUSH1 0x22 PUSH1 0x4 MSTORE PUSH1 0x24 PUSH0 REVERT JUMPDEST PUSH0 PUSH1 0x2 DUP3 DIV SWAP1 POP PUSH1 0x1 DUP3 AND DUP1 PUSH2 0x942 JUMPI PUSH1 0x7F DUP3 AND SWAP2 POP JUMPDEST PUSH1 0x20 DUP3 LT DUP2 SUB PUSH2 0x955 JUMPI PUSH2 0x954 PUSH2 0x8FE JUMP JUMPDEST JUMPDEST POP SWAP2 SWAP1 POP JUMP JUMPDEST PUSH0 PUSH1 0x60 DUP3 ADD SWAP1 POP PUSH2 0x96E PUSH0 DUP4 ADD DUP7 PUSH2 0x7BD JUMP JUMPDEST PUSH2 0x97B PUSH1 0x20 DUP4 ADD DUP6 PUSH2 0x7BD JUMP JUMPDEST PUSH2 0x988 PUSH1 0x40 DUP4 ADD DUP5 PUSH2 0x4CD JUMP JUMPDEST SWAP5 SWAP4 POP POP POP POP JUMP JUMPDEST PUSH32 0x5472616E73666572206661696C65640000000000000000000000000000000000 PUSH0 DUP3 ADD MSTORE POP JUMP JUMPDEST PUSH0 PUSH2 0x9C4 PUSH1 0xF DUP4 PUSH2 0x5D1 JUMP JUMPDEST SWAP2 POP PUSH2 0x9CF DUP3 PUSH2 0x990 JUMP JUMPDEST PUSH1 0x20 DUP3 ADD SWAP1 POP SWAP2 SWAP1 POP JUMP JUMPDEST PUSH0 PUSH1 0x20 DUP3 ADD SWAP1 POP DUP2 DUP2 SUB PUSH0 DUP4 ADD MSTORE PUSH2 0x9F1 DUP2 PUSH2 0x9B8 JUMP JUMPDEST SWAP1 POP SWAP2 SWAP1 POP JUMP JUMPDEST PUSH32 0x496E76616C696420696E737572616E6365207469657221000000000000000000 PUSH0 DUP3 ADD MSTORE POP JUMP JUMPDEST PUSH0 PUSH2 0xA2C PUSH1 0x17 DUP4 PUSH2 0x5D1 JUMP JUMPDEST SWAP2 POP PUSH2 0xA37 DUP3 PUSH2 0x9F8 JUMP JUMPDEST PUSH1 0x20 DUP3 ADD SWAP1 POP SWAP2 SWAP1 POP JUMP JUMPDEST PUSH0 PUSH1 0x20 DUP3 ADD SWAP1 POP DUP2 DUP2 SUB PUSH0 DUP4 ADD MSTORE PUSH2 0xA59 DUP2 PUSH2 0xA20 JUMP JUMPDEST SWAP1 POP SWAP2 SWAP1 POP JUMP INVALID LOG2 PUSH5 0x6970667358 0x22 SLT KECCAK256 0xE5 0xE2 SWAP9 0xE2 OR EXTCODESIZE TIMESTAMP SDIV 0xD SGT 0xC6 CREATE2 0xF PUSH22 0x99271484A054F3C891C007320914F8EFC94064736F6C PUSH4 0x4300081C STOP CALLER "
		},
		"gasEstimates": {
			"creation": {
				"codeDepositCost": "542000",
				"executionCost": "infinite",
				"totalCost": "infinite"
			},
			"external": {
				"depositXRP(uint256)": "infinite",
				"initiatePayout(uint8,address)": "infinite",
				"lastReceivedMessage()": "infinite"
			},
			"internal": {
				"calculatePayout(enum FlightInsurance.InsuranceTier)": "infinite"
			}
		},
		"methodIdentifiers": {
			"depositXRP(uint256)": "cbc07ecc",
			"initiatePayout(uint8,address)": "7851cc06",
			"lastReceivedMessage()": "92dd427b"
		}
	},
	"abi": [
		{
			"inputs": [
				{
					"internalType": "address",
					"name": "_companyWallet",
					"type": "address"
				},
				{
					"internalType": "address",
					"name": "_tokenAddress",
					"type": "address"
				}
			],
			"stateMutability": "payable",
			"type": "constructor"
		},
		{
			"anonymous": false,
			"inputs": [
				{
					"indexed": false,
					"internalType": "address",
					"name": "receipient",
					"type": "address"
				},
				{
					"indexed": false,
					"internalType": "uint256",
					"name": "amount",
					"type": "uint256"
				}
			],
			"name": "PayoutFailed",
			"type": "event"
		},
		{
			"anonymous": false,
			"inputs": [
				{
					"indexed": false,
					"internalType": "address",
					"name": "receipient",
					"type": "address"
				},
				{
					"indexed": false,
					"internalType": "uint256",
					"name": "amount",
					"type": "uint256"
				}
			],
			"name": "PayoutSent",
			"type": "event"
		},
		{
			"anonymous": false,
			"inputs": [
				{
					"indexed": false,
					"internalType": "uint256",
					"name": "amount",
					"type": "uint256"
				}
			],
			"name": "ReceivedFunding",
			"type": "event"
		},
		{
			"inputs": [
				{
					"internalType": "uint256",
					"name": "amount",
					"type": "uint256"
				}
			],
			"name": "depositXRP",
			"outputs": [],
			"stateMutability": "nonpayable",
			"type": "function"
		},
		{
			"inputs": [
				{
					"internalType": "uint8",
					"name": "_tier",
					"type": "uint8"
				},
				{
					"internalType": "address",
					"name": "userWallet",
					"type": "address"
				}
			],
			"name": "initiatePayout",
			"outputs": [],
			"stateMutability": "nonpayable",
			"type": "function"
		},
		{
			"inputs": [],
			"name": "lastReceivedMessage",
			"outputs": [
				{
					"internalType": "string",
					"name": "",
					"type": "string"
				}
			],
			"stateMutability": "view",
			"type": "function"
		},
		{
			"stateMutability": "payable",
			"type": "receive"
		}
	]
}