{
	"data": {
		"bytecode": {
			"linkReferences": {},
			"object": "6080604052348015600e575f5ffd5b506103a38061001c5f395ff3fe608060405234801561000f575f5ffd5b5060043610610029575f3560e01c806348026cf91461002d575b5f5ffd5b61004760048036038101906100429190610225565b610049565b005b5f6100538261012a565b90508061ffff16471015814790916100a2576040517f102a35aa000000000000000000000000000000000000000000000000000000008152600401610099929190610297565b60405180910390fd5b50508273ffffffffffffffffffffffffffffffffffffffff166108fc8261ffff1690811502906040515f60405180830381858888f193505050501580156100eb573d5f5f3e3d5ffd5b507f3ac753e6dc3677d8cf3cdc048f60a90828afc9ff817f9456e9f6889b2e430f3c838260405161011d929190610319565b60405180910390a1505050565b5f5f5f600181111561013f5761013e610340565b5b83600181111561015257610151610340565b5b036101615761012c905061019b565b60018081111561017457610173610340565b5b83600181111561018757610186610340565b5b0361019657610418905061019a565b5f5ffd5b5b80915050919050565b5f5ffd5b5f73ffffffffffffffffffffffffffffffffffffffff82169050919050565b5f6101d1826101a8565b9050919050565b6101e1816101c7565b81146101eb575f5ffd5b50565b5f813590506101fc816101d8565b92915050565b6002811061020e575f5ffd5b50565b5f8135905061021f81610202565b92915050565b5f5f6040838503121561023b5761023a6101a4565b5b5f610248858286016101ee565b925050602061025985828601610211565b9150509250929050565b5f61ffff82169050919050565b61027981610263565b82525050565b5f819050919050565b6102918161027f565b82525050565b5f6040820190506102aa5f830185610270565b6102b76020830184610288565b9392505050565b5f819050919050565b5f6102e16102dc6102d7846101a8565b6102be565b6101a8565b9050919050565b5f6102f2826102c7565b9050919050565b5f610303826102e8565b9050919050565b610313816102f9565b82525050565b5f60408201905061032c5f83018561030a565b6103396020830184610270565b9392505050565b7f4e487b71000000000000000000000000000000000000000000000000000000005f52602160045260245ffdfea264697066735822122074a52bb9fdb9f2829477d197fb2b92f9df77e078c9d6d75cad6b64446e68184564736f6c634300081c0033",
			"opcodes": "PUSH1 0x80 PUSH1 0x40 MSTORE CALLVALUE DUP1 ISZERO PUSH1 0xE JUMPI PUSH0 PUSH0 REVERT JUMPDEST POP PUSH2 0x3A3 DUP1 PUSH2 0x1C PUSH0 CODECOPY PUSH0 RETURN INVALID PUSH1 0x80 PUSH1 0x40 MSTORE CALLVALUE DUP1 ISZERO PUSH2 0xF JUMPI PUSH0 PUSH0 REVERT JUMPDEST POP PUSH1 0x4 CALLDATASIZE LT PUSH2 0x29 JUMPI PUSH0 CALLDATALOAD PUSH1 0xE0 SHR DUP1 PUSH4 0x48026CF9 EQ PUSH2 0x2D JUMPI JUMPDEST PUSH0 PUSH0 REVERT JUMPDEST PUSH2 0x47 PUSH1 0x4 DUP1 CALLDATASIZE SUB DUP2 ADD SWAP1 PUSH2 0x42 SWAP2 SWAP1 PUSH2 0x225 JUMP JUMPDEST PUSH2 0x49 JUMP JUMPDEST STOP JUMPDEST PUSH0 PUSH2 0x53 DUP3 PUSH2 0x12A JUMP JUMPDEST SWAP1 POP DUP1 PUSH2 0xFFFF AND SELFBALANCE LT ISZERO DUP2 SELFBALANCE SWAP1 SWAP2 PUSH2 0xA2 JUMPI PUSH1 0x40 MLOAD PUSH32 0x102A35AA00000000000000000000000000000000000000000000000000000000 DUP2 MSTORE PUSH1 0x4 ADD PUSH2 0x99 SWAP3 SWAP2 SWAP1 PUSH2 0x297 JUMP JUMPDEST PUSH1 0x40 MLOAD DUP1 SWAP2 SUB SWAP1 REVERT JUMPDEST POP POP DUP3 PUSH20 0xFFFFFFFFFFFFFFFFFFFFFFFFFFFFFFFFFFFFFFFF AND PUSH2 0x8FC DUP3 PUSH2 0xFFFF AND SWAP1 DUP2 ISZERO MUL SWAP1 PUSH1 0x40 MLOAD PUSH0 PUSH1 0x40 MLOAD DUP1 DUP4 SUB DUP2 DUP6 DUP9 DUP9 CALL SWAP4 POP POP POP POP ISZERO DUP1 ISZERO PUSH2 0xEB JUMPI RETURNDATASIZE PUSH0 PUSH0 RETURNDATACOPY RETURNDATASIZE PUSH0 REVERT JUMPDEST POP PUSH32 0x3AC753E6DC3677D8CF3CDC048F60A90828AFC9FF817F9456E9F6889B2E430F3C DUP4 DUP3 PUSH1 0x40 MLOAD PUSH2 0x11D SWAP3 SWAP2 SWAP1 PUSH2 0x319 JUMP JUMPDEST PUSH1 0x40 MLOAD DUP1 SWAP2 SUB SWAP1 LOG1 POP POP POP JUMP JUMPDEST PUSH0 PUSH0 PUSH0 PUSH1 0x1 DUP2 GT ISZERO PUSH2 0x13F JUMPI PUSH2 0x13E PUSH2 0x340 JUMP JUMPDEST JUMPDEST DUP4 PUSH1 0x1 DUP2 GT ISZERO PUSH2 0x152 JUMPI PUSH2 0x151 PUSH2 0x340 JUMP JUMPDEST JUMPDEST SUB PUSH2 0x161 JUMPI PUSH2 0x12C SWAP1 POP PUSH2 0x19B JUMP JUMPDEST PUSH1 0x1 DUP1 DUP2 GT ISZERO PUSH2 0x174 JUMPI PUSH2 0x173 PUSH2 0x340 JUMP JUMPDEST JUMPDEST DUP4 PUSH1 0x1 DUP2 GT ISZERO PUSH2 0x187 JUMPI PUSH2 0x186 PUSH2 0x340 JUMP JUMPDEST JUMPDEST SUB PUSH2 0x196 JUMPI PUSH2 0x418 SWAP1 POP PUSH2 0x19A JUMP JUMPDEST PUSH0 PUSH0 REVERT JUMPDEST JUMPDEST DUP1 SWAP2 POP POP SWAP2 SWAP1 POP JUMP JUMPDEST PUSH0 PUSH0 REVERT JUMPDEST PUSH0 PUSH20 0xFFFFFFFFFFFFFFFFFFFFFFFFFFFFFFFFFFFFFFFF DUP3 AND SWAP1 POP SWAP2 SWAP1 POP JUMP JUMPDEST PUSH0 PUSH2 0x1D1 DUP3 PUSH2 0x1A8 JUMP JUMPDEST SWAP1 POP SWAP2 SWAP1 POP JUMP JUMPDEST PUSH2 0x1E1 DUP2 PUSH2 0x1C7 JUMP JUMPDEST DUP2 EQ PUSH2 0x1EB JUMPI PUSH0 PUSH0 REVERT JUMPDEST POP JUMP JUMPDEST PUSH0 DUP2 CALLDATALOAD SWAP1 POP PUSH2 0x1FC DUP2 PUSH2 0x1D8 JUMP JUMPDEST SWAP3 SWAP2 POP POP JUMP JUMPDEST PUSH1 0x2 DUP2 LT PUSH2 0x20E JUMPI PUSH0 PUSH0 REVERT JUMPDEST POP JUMP JUMPDEST PUSH0 DUP2 CALLDATALOAD SWAP1 POP PUSH2 0x21F DUP2 PUSH2 0x202 JUMP JUMPDEST SWAP3 SWAP2 POP POP JUMP JUMPDEST PUSH0 PUSH0 PUSH1 0x40 DUP4 DUP6 SUB SLT ISZERO PUSH2 0x23B JUMPI PUSH2 0x23A PUSH2 0x1A4 JUMP JUMPDEST JUMPDEST PUSH0 PUSH2 0x248 DUP6 DUP3 DUP7 ADD PUSH2 0x1EE JUMP JUMPDEST SWAP3 POP POP PUSH1 0x20 PUSH2 0x259 DUP6 DUP3 DUP7 ADD PUSH2 0x211 JUMP JUMPDEST SWAP2 POP POP SWAP3 POP SWAP3 SWAP1 POP JUMP JUMPDEST PUSH0 PUSH2 0xFFFF DUP3 AND SWAP1 POP SWAP2 SWAP1 POP JUMP JUMPDEST PUSH2 0x279 DUP2 PUSH2 0x263 JUMP JUMPDEST DUP3 MSTORE POP POP JUMP JUMPDEST PUSH0 DUP2 SWAP1 POP SWAP2 SWAP1 POP JUMP JUMPDEST PUSH2 0x291 DUP2 PUSH2 0x27F JUMP JUMPDEST DUP3 MSTORE POP POP JUMP JUMPDEST PUSH0 PUSH1 0x40 DUP3 ADD SWAP1 POP PUSH2 0x2AA PUSH0 DUP4 ADD DUP6 PUSH2 0x270 JUMP JUMPDEST PUSH2 0x2B7 PUSH1 0x20 DUP4 ADD DUP5 PUSH2 0x288 JUMP JUMPDEST SWAP4 SWAP3 POP POP POP JUMP JUMPDEST PUSH0 DUP2 SWAP1 POP SWAP2 SWAP1 POP JUMP JUMPDEST PUSH0 PUSH2 0x2E1 PUSH2 0x2DC PUSH2 0x2D7 DUP5 PUSH2 0x1A8 JUMP JUMPDEST PUSH2 0x2BE JUMP JUMPDEST PUSH2 0x1A8 JUMP JUMPDEST SWAP1 POP SWAP2 SWAP1 POP JUMP JUMPDEST PUSH0 PUSH2 0x2F2 DUP3 PUSH2 0x2C7 JUMP JUMPDEST SWAP1 POP SWAP2 SWAP1 POP JUMP JUMPDEST PUSH0 PUSH2 0x303 DUP3 PUSH2 0x2E8 JUMP JUMPDEST SWAP1 POP SWAP2 SWAP1 POP JUMP JUMPDEST PUSH2 0x313 DUP2 PUSH2 0x2F9 JUMP JUMPDEST DUP3 MSTORE POP POP JUMP JUMPDEST PUSH0 PUSH1 0x40 DUP3 ADD SWAP1 POP PUSH2 0x32C PUSH0 DUP4 ADD DUP6 PUSH2 0x30A JUMP JUMPDEST PUSH2 0x339 PUSH1 0x20 DUP4 ADD DUP5 PUSH2 0x270 JUMP JUMPDEST SWAP4 SWAP3 POP POP POP JUMP JUMPDEST PUSH32 0x4E487B7100000000000000000000000000000000000000000000000000000000 PUSH0 MSTORE PUSH1 0x21 PUSH1 0x4 MSTORE PUSH1 0x24 PUSH0 REVERT INVALID LOG2 PUSH5 0x6970667358 0x22 SLT KECCAK256 PUSH21 0xA52BB9FDB9F2829477D197FB2B92F9DF77E078C9D6 0xD7 TLOAD 0xAD PUSH12 0x64446E68184564736F6C6343 STOP ADDMOD SHR STOP CALLER "
		},
		"gasEstimates": {
			"creation": {
				"codeDepositCost": "186200",
				"executionCost": "230",
				"totalCost": "186430"
			},
			"external": {
				"makePayout(address,uint8)": "infinite"
			},
			"internal": {
				"calculatePayout(enum FlightInsurance.InsuranceTier)": "200"
			}
		},
		"methodIdentifiers": {
			"makePayout(address,uint8)": "48026cf9"
		}
	},
	"abi": [
		{
			"inputs": [
				{
					"internalType": "uint16",
					"name": "required",
					"type": "uint16"
				},
				{
					"internalType": "uint256",
					"name": "available",
					"type": "uint256"
				}
			],
			"name": "InsufficientBalance",
			"type": "error"
		},
		{
			"anonymous": false,
			"inputs": [
				{
					"indexed": false,
					"internalType": "address",
					"name": "receipient",
					"type": "address"
				},
				{
					"indexed": false,
					"internalType": "uint16",
					"name": "amount",
					"type": "uint16"
				}
			],
			"name": "Sent",
			"type": "event"
		},
		{
			"inputs": [
				{
					"internalType": "address payable",
					"name": "userAddress",
					"type": "address"
				},
				{
					"internalType": "enum FlightInsurance.InsuranceTier",
					"name": "_userTier",
					"type": "uint8"
				}
			],
			"name": "makePayout",
			"outputs": [],
			"stateMutability": "nonpayable",
			"type": "function"
		}
	]
}